{
  "abi": [
    {
      "inputs": [
        {
          "internalType": "address",
          "name": "_officer",
          "type": "address"
        }
      ],
      "stateMutability": "nonpayable",
      "type": "constructor"
    },
    {
      "anonymous": false,
      "inputs": [
        {
          "indexed": false,
          "internalType": "uint256",
          "name": "id",
          "type": "uint256"
        },
        {
          "indexed": false,
          "internalType": "address",
          "name": "complaintRegisteredBy",
          "type": "address"
        },
        {
          "indexed": false,
          "internalType": "string",
          "name": "title",
          "type": "string"
        }
      ],
      "name": "complaintFiled",
      "type": "event"
    },
    {
      "inputs": [
        {
          "internalType": "uint256",
          "name": "",
          "type": "uint256"
        }
      ],
      "name": "Complaints",
      "outputs": [
        {
          "internalType": "uint256",
          "name": "id",
          "type": "uint256"
        },
        {
          "internalType": "address",
          "name": "complaintRegisteredBy",
          "type": "address"
        },
        {
          "internalType": "string",
          "name": "title",
          "type": "string"
        },
        {
          "internalType": "string",
          "name": "description",
          "type": "string"
        },
        {
          "internalType": "string",
          "name": "approvalRemark",
          "type": "string"
        },
        {
          "internalType": "string",
          "name": "resolutionRemark",
          "type": "string"
        },
        {
          "internalType": "bool",
          "name": "isApproved",
          "type": "bool"
        },
        {
          "internalType": "bool",
          "name": "isResolved",
          "type": "bool"
        },
        {
          "internalType": "bool",
          "name": "exists",
          "type": "bool"
        }
      ],
      "stateMutability": "view",
      "type": "function"
    },
    {
      "inputs": [
        {
          "internalType": "uint256",
          "name": "_id",
          "type": "uint256"
        },
        {
          "internalType": "string",
          "name": "_approvalRemark",
          "type": "string"
        }
      ],
      "name": "approveComplaint",
      "outputs": [],
      "stateMutability": "nonpayable",
      "type": "function"
    },
    {
      "inputs": [],
      "name": "calcPendingApprovalIds",
      "outputs": [],
      "stateMutability": "nonpayable",
      "type": "function"
    },
    {
      "inputs": [],
      "name": "calcPendingResolutionIds",
      "outputs": [],
      "stateMutability": "nonpayable",
      "type": "function"
    },
    {
      "inputs": [],
      "name": "calcResolvedIds",
      "outputs": [],
      "stateMutability": "nonpayable",
      "type": "function"
    },
    {
      "inputs": [
        {
          "internalType": "uint256",
          "name": "_id",
          "type": "uint256"
        },
        {
          "internalType": "string",
          "name": "_approvalRemark",
          "type": "string"
        }
      ],
      "name": "discardComplaint",
      "outputs": [],
      "stateMutability": "nonpayable",
      "type": "function"
    },
    {
      "inputs": [
        {
          "internalType": "string",
          "name": "_title",
          "type": "string"
        },
        {
          "internalType": "string",
          "name": "_description",
          "type": "string"
        }
      ],
      "name": "fileComplaint",
      "outputs": [],
      "stateMutability": "nonpayable",
      "type": "function"
    },
    {
      "inputs": [],
      "name": "nextId",
      "outputs": [
        {
          "internalType": "uint256",
          "name": "",
          "type": "uint256"
        }
      ],
      "stateMutability": "view",
      "type": "function"
    },
    {
      "inputs": [],
      "name": "officer",
      "outputs": [
        {
          "internalType": "address",
          "name": "",
          "type": "address"
        }
      ],
      "stateMutability": "view",
      "type": "function"
    },
    {
      "inputs": [],
      "name": "owner",
      "outputs": [
        {
          "internalType": "address",
          "name": "",
          "type": "address"
        }
      ],
      "stateMutability": "view",
      "type": "function"
    },
    {
      "inputs": [
        {
          "internalType": "uint256",
          "name": "",
          "type": "uint256"
        }
      ],
      "name": "pendingApprovals",
      "outputs": [
        {
          "internalType": "uint256",
          "name": "",
          "type": "uint256"
        }
      ],
      "stateMutability": "view",
      "type": "function"
    },
    {
      "inputs": [
        {
          "internalType": "uint256",
          "name": "",
          "type": "uint256"
        }
      ],
      "name": "pendingResolutions",
      "outputs": [
        {
          "internalType": "uint256",
          "name": "",
          "type": "uint256"
        }
      ],
      "stateMutability": "view",
      "type": "function"
    },
    {
      "inputs": [
        {
          "internalType": "uint256",
          "name": "_id",
          "type": "uint256"
        },
        {
          "internalType": "string",
          "name": "_resolutionRemark",
          "type": "string"
        }
      ],
      "name": "resolveComplaint",
      "outputs": [],
      "stateMutability": "nonpayable",
      "type": "function"
    },
    {
      "inputs": [
        {
          "internalType": "uint256",
          "name": "",
          "type": "uint256"
        }
      ],
      "name": "resolvedCases",
      "outputs": [
        {
          "internalType": "uint256",
          "name": "",
          "type": "uint256"
        }
      ],
      "stateMutability": "view",
      "type": "function"
    },
    {
      "inputs": [
        {
          "internalType": "address",
          "name": "_officer",
          "type": "address"
        }
      ],
      "name": "setOfficerAddress",
      "outputs": [],
      "stateMutability": "nonpayable",
      "type": "function"
    }
  ],
  "devdoc": {
    "kind": "dev",
    "methods": {},
    "version": 1
  },
  "evm": {
    "assembly": "    /* \"Complaint.sol\":60:4704  contract Complaint {... */\n  mstore(0x40, 0x80)\n    /* \"Complaint.sol\":291:408  constructor(address _officer) {... */\n  callvalue\n  dup1\n  iszero\n  tag_1\n  jumpi\n  0x00\n  dup1\n  revert\ntag_1:\n  pop\n  mload(0x40)\n  sub(codesize, bytecodeSize)\n  dup1\n  bytecodeSize\n  dup4\n  codecopy\n  dup2\n  add\n  0x40\n  dup2\n  swap1\n  mstore\n  tag_2\n  swap2\n  tag_3\n  jump\t// in\ntag_2:\n    /* \"Complaint.sol\":332:337  owner */\n  0x01\n    /* \"Complaint.sol\":332:350  owner = msg.sender */\n  dup1\n  sload\n    /* \"Complaint.sol\":340:350  msg.sender */\n  caller\n  not(sub(shl(0xa0, 0x01), 0x01))\n    /* \"Complaint.sol\":332:350  owner = msg.sender */\n  swap2\n  dup3\n  and\n  or\n  dup3\n  sstore\n  0x00\n    /* \"Complaint.sol\":361:379  officer = _officer */\n  dup1\n  sload\n  swap1\n  swap2\n  and\n  sub(shl(0xa0, 0x01), 0x01)\n  swap4\n  swap1\n  swap4\n  and\n  swap3\n  swap1\n  swap3\n  or\n  swap1\n  swap2\n  sstore\n    /* \"Complaint.sol\":390:396  nextId */\n  0x02\n    /* \"Complaint.sol\":390:400  nextId = 1 */\n  sstore\n    /* \"Complaint.sol\":60:4704  contract Complaint {... */\n  jump(tag_7)\n    /* \"#utility.yul\":14:304   */\ntag_3:\n    /* \"#utility.yul\":84:90   */\n  0x00\n    /* \"#utility.yul\":137:139   */\n  0x20\n    /* \"#utility.yul\":125:134   */\n  dup3\n    /* \"#utility.yul\":116:123   */\n  dup5\n    /* \"#utility.yul\":112:135   */\n  sub\n    /* \"#utility.yul\":108:140   */\n  slt\n    /* \"#utility.yul\":105:157   */\n  iszero\n  tag_9\n  jumpi\n    /* \"#utility.yul\":153:154   */\n  0x00\n    /* \"#utility.yul\":150:151   */\n  dup1\n    /* \"#utility.yul\":143:155   */\n  revert\n    /* \"#utility.yul\":105:157   */\ntag_9:\n    /* \"#utility.yul\":179:195   */\n  dup2\n  mload\n  sub(shl(0xa0, 0x01), 0x01)\n    /* \"#utility.yul\":224:255   */\n  dup2\n  and\n    /* \"#utility.yul\":214:256   */\n  dup2\n  eq\n    /* \"#utility.yul\":204:274   */\n  tag_10\n  jumpi\n    /* \"#utility.yul\":270:271   */\n  0x00\n    /* \"#utility.yul\":267:268   */\n  dup1\n    /* \"#utility.yul\":260:272   */\n  revert\n    /* \"#utility.yul\":204:274   */\ntag_10:\n    /* \"#utility.yul\":293:298   */\n  swap4\n    /* \"#utility.yul\":14:304   */\n  swap3\n  pop\n  pop\n  pop\n  jump\t// out\ntag_7:\n    /* \"Complaint.sol\":60:4704  contract Complaint {... */\n  dataSize(sub_0)\n  dup1\n  dataOffset(sub_0)\n  0x00\n  codecopy\n  0x00\n  return\nstop\n\nsub_0: assembly {\n        /* \"Complaint.sol\":60:4704  contract Complaint {... */\n      mstore(0x40, 0x80)\n      callvalue\n      dup1\n      iszero\n      tag_1\n      jumpi\n      0x00\n      dup1\n      revert\n    tag_1:\n      pop\n      jumpi(tag_2, lt(calldatasize, 0x04))\n      shr(0xe0, calldataload(0x00))\n      dup1\n      0x6d1727e9\n      gt\n      tag_18\n      jumpi\n      dup1\n      0xbc685ce0\n      gt\n      tag_19\n      jumpi\n      dup1\n      0xbc685ce0\n      eq\n      tag_14\n      jumpi\n      dup1\n      0xcc911635\n      eq\n      tag_15\n      jumpi\n      dup1\n      0xd2032042\n      eq\n      tag_16\n      jumpi\n      dup1\n      0xfecc1021\n      eq\n      tag_17\n      jumpi\n      0x00\n      dup1\n      revert\n    tag_19:\n      dup1\n      0x6d1727e9\n      eq\n      tag_10\n      jumpi\n      dup1\n      0x8da5cb5b\n      eq\n      tag_11\n      jumpi\n      dup1\n      0x9f2b37b0\n      eq\n      tag_12\n      jumpi\n      dup1\n      0xb09cc427\n      eq\n      tag_13\n      jumpi\n      0x00\n      dup1\n      revert\n    tag_18:\n      dup1\n      0x3c5f15e7\n      gt\n      tag_20\n      jumpi\n      dup1\n      0x3c5f15e7\n      eq\n      tag_6\n      jumpi\n      dup1\n      0x4de1c8c3\n      eq\n      tag_7\n      jumpi\n      dup1\n      0x61b8ce8c\n      eq\n      tag_8\n      jumpi\n      dup1\n      0x686b656e\n      eq\n      tag_9\n      jumpi\n      0x00\n      dup1\n      revert\n    tag_20:\n      dup1\n      0x2071be7f\n      eq\n      tag_3\n      jumpi\n      dup1\n      0x26019e7f\n      eq\n      tag_4\n      jumpi\n      dup1\n      0x346fed10\n      eq\n      tag_5\n      jumpi\n    tag_2:\n      0x00\n      dup1\n      revert\n        /* \"Complaint.sol\":4339:4594  function calcResolvedIds() public {... */\n    tag_3:\n      tag_21\n      tag_22\n      jump\t// in\n    tag_21:\n      stop\n        /* \"Complaint.sol\":2955:3556  function resolveComplaint(uint256 _id, string memory _resolutionRemark)... */\n    tag_4:\n      tag_21\n      tag_24\n      calldatasize\n      0x04\n      tag_25\n      jump\t// in\n    tag_24:\n      tag_26\n      jump\t// in\n        /* \"Complaint.sol\":3922:4331  function calcPendingResolutionIds() public {... */\n    tag_5:\n      tag_21\n      tag_28\n      jump\t// in\n        /* \"Complaint.sol\":4602:4701  function setOfficerAddress(address _officer) public onlyOwner {... */\n    tag_6:\n      tag_21\n      tag_30\n      calldatasize\n      0x04\n      tag_31\n      jump\t// in\n    tag_30:\n      tag_32\n      jump\t// in\n        /* \"Complaint.sol\":252:282  uint256[] public resolvedCases */\n    tag_7:\n      tag_33\n      tag_34\n      calldatasize\n      0x04\n      tag_35\n      jump\t// in\n    tag_34:\n      tag_36\n      jump\t// in\n    tag_33:\n      mload(0x40)\n        /* \"#utility.yul\":1910:1935   */\n      swap1\n      dup2\n      mstore\n        /* \"#utility.yul\":1898:1900   */\n      0x20\n        /* \"#utility.yul\":1883:1901   */\n      add\n        /* \"Complaint.sol\":252:282  uint256[] public resolvedCases */\n    tag_37:\n      mload(0x40)\n      dup1\n      swap2\n      sub\n      swap1\n      return\n        /* \"Complaint.sol\":142:163  uint256 public nextId */\n    tag_8:\n      tag_33\n      sload(0x02)\n      dup2\n      jump\n        /* \"Complaint.sol\":170:203  uint256[] public pendingApprovals */\n    tag_9:\n      tag_33\n      tag_43\n      calldatasize\n      0x04\n      tag_35\n      jump\t// in\n    tag_43:\n      tag_44\n      jump\t// in\n        /* \"Complaint.sol\":1235:1900  function fileComplaint(string memory _title, string memory _description)... */\n    tag_10:\n      tag_21\n      tag_47\n      calldatasize\n      0x04\n      tag_48\n      jump\t// in\n    tag_47:\n      tag_49\n      jump\t// in\n        /* \"Complaint.sol\":115:135  address public owner */\n    tag_11:\n      sload(0x01)\n      tag_50\n      swap1\n      sub(shl(0xa0, 0x01), 0x01)\n      and\n      dup2\n      jump\n    tag_50:\n      mload(0x40)\n      sub(shl(0xa0, 0x01), 0x01)\n        /* \"#utility.yul\":2658:2713   */\n      swap1\n      swap2\n      and\n        /* \"#utility.yul\":2640:2714   */\n      dup2\n      mstore\n        /* \"#utility.yul\":2628:2630   */\n      0x20\n        /* \"#utility.yul\":2613:2631   */\n      add\n        /* \"Complaint.sol\":115:135  address public owner */\n      tag_37\n        /* \"#utility.yul\":2494:2720   */\n      jump\n        /* \"Complaint.sol\":1059:1106  mapping(uint256 => complaint) public Complaints */\n    tag_12:\n      tag_54\n      tag_55\n      calldatasize\n      0x04\n      tag_35\n      jump\t// in\n    tag_55:\n      tag_56\n      jump\t// in\n    tag_54:\n      mload(0x40)\n      tag_37\n      swap10\n      swap9\n      swap8\n      swap7\n      swap6\n      swap5\n      swap4\n      swap3\n      swap2\n      swap1\n      tag_58\n      jump\t// in\n        /* \"Complaint.sol\":2387:2947  function discardComplaint(uint256 _id, string memory _approvalRemark)... */\n    tag_13:\n      tag_21\n      tag_60\n      calldatasize\n      0x04\n      tag_25\n      jump\t// in\n    tag_60:\n      tag_61\n      jump\t// in\n        /* \"Complaint.sol\":86:108  address public officer */\n    tag_14:\n      sload(0x00)\n      tag_50\n      swap1\n      sub(shl(0xa0, 0x01), 0x01)\n      and\n      dup2\n      jump\n        /* \"Complaint.sol\":3564:3914  function calcPendingApprovalIds() public {... */\n    tag_15:\n      tag_21\n      tag_66\n      jump\t// in\n        /* \"Complaint.sol\":1908:2379  function approveComplaint(uint256 _id, string memory _approvalRemark)... */\n    tag_16:\n      tag_21\n      tag_68\n      calldatasize\n      0x04\n      tag_25\n      jump\t// in\n    tag_68:\n      tag_69\n      jump\t// in\n        /* \"Complaint.sol\":210:245  uint256[] public pendingResolutions */\n    tag_17:\n      tag_33\n      tag_71\n      calldatasize\n      0x04\n      tag_35\n      jump\t// in\n    tag_71:\n      tag_72\n      jump\t// in\n        /* \"Complaint.sol\":4339:4594  function calcResolvedIds() public {... */\n    tag_22:\n        /* \"Complaint.sol\":4384:4404  delete resolvedCases */\n      tag_75\n        /* \"Complaint.sol\":4391:4404  resolvedCases */\n      0x05\n      0x00\n        /* \"Complaint.sol\":4384:4404  delete resolvedCases */\n      tag_76\n      jump\t// in\n    tag_75:\n        /* \"Complaint.sol\":4432:4433  1 */\n      0x01\n        /* \"Complaint.sol\":4415:4587  for (uint256 i = 1; i < nextId; i++) {... */\n    tag_77:\n        /* \"Complaint.sol\":4439:4445  nextId */\n      sload(0x02)\n        /* \"Complaint.sol\":4435:4436  i */\n      dup2\n        /* \"Complaint.sol\":4435:4445  i < nextId */\n      lt\n        /* \"Complaint.sol\":4415:4587  for (uint256 i = 1; i < nextId; i++) {... */\n      iszero\n      tag_78\n      jumpi\n        /* \"Complaint.sol\":4471:4484  Complaints[i] */\n      0x00\n      dup2\n      dup2\n      mstore\n        /* \"Complaint.sol\":4471:4481  Complaints */\n      0x06\n        /* \"Complaint.sol\":4471:4484  Complaints[i] */\n      0x20\n      dup2\n      swap1\n      mstore\n      0x40\n      swap1\n      swap2\n      keccak256\n        /* \"Complaint.sol\":4471:4495  Complaints[i].isResolved */\n      add\n      sload\n      0x0100\n      swap1\n      div\n      0xff\n      and\n        /* \"Complaint.sol\":4471:4503  Complaints[i].isResolved == true */\n      iszero\n      iszero\n        /* \"Complaint.sol\":4471:4495  Complaints[i].isResolved */\n      0x01\n        /* \"Complaint.sol\":4471:4503  Complaints[i].isResolved == true */\n      sub\n        /* \"Complaint.sol\":4467:4576  if (Complaints[i].isResolved == true) {... */\n      tag_80\n      jumpi\n        /* \"Complaint.sol\":4543:4556  Complaints[i] */\n      0x00\n      dup2\n      dup2\n      mstore\n        /* \"Complaint.sol\":4543:4553  Complaints */\n      0x06\n        /* \"Complaint.sol\":4543:4556  Complaints[i] */\n      0x20\n      mstore\n      0x40\n      dup2\n      keccak256\n        /* \"Complaint.sol\":4543:4559  Complaints[i].id */\n      sload\n        /* \"Complaint.sol\":4524:4537  resolvedCases */\n      0x05\n        /* \"Complaint.sol\":4524:4560  resolvedCases.push(Complaints[i].id) */\n      dup1\n      sload\n      0x01\n      dup2\n      add\n      dup3\n      sstore\n      swap3\n      mstore\n      0x036b6384b5eca791c62761152d0c79bb0604c104a5fb6f4eb0703f3154bb3db0\n      swap1\n      swap2\n      add\n      sstore\n        /* \"Complaint.sol\":4467:4576  if (Complaints[i].isResolved == true) {... */\n    tag_80:\n        /* \"Complaint.sol\":4447:4450  i++ */\n      dup1\n      tag_82\n      dup2\n      tag_83\n      jump\t// in\n    tag_82:\n      swap2\n      pop\n      pop\n        /* \"Complaint.sol\":4415:4587  for (uint256 i = 1; i < nextId; i++) {... */\n      jump(tag_77)\n    tag_78:\n      pop\n        /* \"Complaint.sol\":4339:4594  function calcResolvedIds() public {... */\n      jump\t// out\n        /* \"Complaint.sol\":2955:3556  function resolveComplaint(uint256 _id, string memory _resolutionRemark)... */\n    tag_26:\n        /* \"Complaint.sol\":659:666  officer */\n      and(sub(shl(0xa0, 0x01), 0x01), sload(0x00))\n        /* \"Complaint.sol\":645:655  msg.sender */\n      caller\n        /* \"Complaint.sol\":645:666  msg.sender == officer */\n      eq\n        /* \"Complaint.sol\":623:747  require(... */\n      tag_85\n      jumpi\n      mload(0x40)\n      shl(0xe5, 0x461bcd)\n      dup2\n      mstore\n        /* \"#utility.yul\":4870:4872   */\n      0x20\n        /* \"Complaint.sol\":623:747  require(... */\n      0x04\n      dup3\n      add\n        /* \"#utility.yul\":4852:4873   */\n      mstore\n        /* \"#utility.yul\":4909:4911   */\n      0x35\n        /* \"#utility.yul\":4889:4907   */\n      0x24\n      dup3\n      add\n        /* \"#utility.yul\":4882:4912   */\n      mstore\n        /* \"#utility.yul\":4948:4982   */\n      0x596f7520617265206e6f742072656769737465726564206f666669636572206f\n        /* \"#utility.yul\":4928:4946   */\n      0x44\n      dup3\n      add\n        /* \"#utility.yul\":4921:4983   */\n      mstore\n        /* \"#utility.yul\":5019:5042   */\n      0x66207468697320736d61727420636f6e74726163740000000000000000000000\n        /* \"#utility.yul\":4999:5017   */\n      0x64\n      dup3\n      add\n        /* \"#utility.yul\":4992:5043   */\n      mstore\n        /* \"#utility.yul\":5060:5079   */\n      0x84\n      add\n        /* \"Complaint.sol\":623:747  require(... */\n    tag_86:\n      mload(0x40)\n      dup1\n      swap2\n      sub\n      swap1\n      revert\n    tag_85:\n        /* \"Complaint.sol\":3102:3117  Complaints[_id] */\n      0x00\n      dup3\n      dup2\n      mstore\n        /* \"Complaint.sol\":3102:3112  Complaints */\n      0x06\n        /* \"Complaint.sol\":3102:3117  Complaints[_id] */\n      0x20\n      dup2\n      swap1\n      mstore\n      0x40\n      swap1\n      swap2\n      keccak256\n        /* \"Complaint.sol\":3102:3124  Complaints[_id].exists */\n      add\n      sload\n      0x010000\n      swap1\n      div\n      0xff\n      and\n        /* \"Complaint.sol\":3102:3132  Complaints[_id].exists == true */\n      iszero\n      iszero\n        /* \"Complaint.sol\":3128:3132  true */\n      0x01\n        /* \"Complaint.sol\":3102:3132  Complaints[_id].exists == true */\n      eq\n        /* \"Complaint.sol\":3080:3192  require(... */\n      tag_89\n      jumpi\n      mload(0x40)\n      shl(0xe5, 0x461bcd)\n      dup2\n      mstore\n        /* \"#utility.yul\":5292:5294   */\n      0x20\n        /* \"Complaint.sol\":3080:3192  require(... */\n      0x04\n      dup3\n      add\n        /* \"#utility.yul\":5274:5295   */\n      dup2\n      swap1\n      mstore\n        /* \"#utility.yul\":5311:5329   */\n      0x24\n      dup3\n      add\n        /* \"#utility.yul\":5304:5334   */\n      mstore\n        /* \"#utility.yul\":5370:5404   */\n      0x5468697320636f6d706c61696e7420696420646f6573206e6f74206578697374\n        /* \"#utility.yul\":5350:5368   */\n      0x44\n      dup3\n      add\n        /* \"#utility.yul\":5343:5405   */\n      mstore\n        /* \"#utility.yul\":5422:5440   */\n      0x64\n      add\n        /* \"Complaint.sol\":3080:3192  require(... */\n      tag_86\n        /* \"#utility.yul\":5090:5446   */\n      jump\n        /* \"Complaint.sol\":3080:3192  require(... */\n    tag_89:\n        /* \"Complaint.sol\":3225:3240  Complaints[_id] */\n      0x00\n      dup3\n      dup2\n      mstore\n        /* \"Complaint.sol\":3225:3235  Complaints */\n      0x06\n        /* \"Complaint.sol\":3225:3240  Complaints[_id] */\n      0x20\n      dup2\n      swap1\n      mstore\n      0x40\n      swap1\n      swap2\n      keccak256\n        /* \"Complaint.sol\":3225:3251  Complaints[_id].isApproved */\n      add\n      sload\n      0xff\n      and\n        /* \"Complaint.sol\":3225:3259  Complaints[_id].isApproved == true */\n      iszero\n      iszero\n        /* \"Complaint.sol\":3225:3251  Complaints[_id].isApproved */\n      0x01\n        /* \"Complaint.sol\":3225:3259  Complaints[_id].isApproved == true */\n      eq\n        /* \"Complaint.sol\":3203:3316  require(... */\n      tag_92\n      jumpi\n      mload(0x40)\n      shl(0xe5, 0x461bcd)\n      dup2\n      mstore\n        /* \"#utility.yul\":5653:5655   */\n      0x20\n        /* \"Complaint.sol\":3203:3316  require(... */\n      0x04\n      dup3\n      add\n        /* \"#utility.yul\":5635:5656   */\n      mstore\n        /* \"#utility.yul\":5692:5694   */\n      0x1d\n        /* \"#utility.yul\":5672:5690   */\n      0x24\n      dup3\n      add\n        /* \"#utility.yul\":5665:5695   */\n      mstore\n        /* \"#utility.yul\":5731:5762   */\n      0x436f6d706c61696e74206973206e6f742079657420617070726f766564000000\n        /* \"#utility.yul\":5711:5729   */\n      0x44\n      dup3\n      add\n        /* \"#utility.yul\":5704:5763   */\n      mstore\n        /* \"#utility.yul\":5780:5798   */\n      0x64\n      add\n        /* \"Complaint.sol\":3203:3316  require(... */\n      tag_86\n        /* \"#utility.yul\":5451:5804   */\n      jump\n        /* \"Complaint.sol\":3203:3316  require(... */\n    tag_92:\n        /* \"Complaint.sol\":3349:3364  Complaints[_id] */\n      0x00\n      dup3\n      dup2\n      mstore\n        /* \"Complaint.sol\":3349:3359  Complaints */\n      0x06\n        /* \"Complaint.sol\":3349:3364  Complaints[_id] */\n      0x20\n      dup2\n      swap1\n      mstore\n      0x40\n      swap1\n      swap2\n      keccak256\n        /* \"Complaint.sol\":3349:3375  Complaints[_id].isResolved */\n      add\n      sload\n      0x0100\n      swap1\n      div\n      0xff\n      and\n        /* \"Complaint.sol\":3349:3384  Complaints[_id].isResolved == false */\n      iszero\n        /* \"Complaint.sol\":3327:3441  require(... */\n      tag_95\n      jumpi\n      mload(0x40)\n      shl(0xe5, 0x461bcd)\n      dup2\n      mstore\n        /* \"#utility.yul\":6011:6013   */\n      0x20\n        /* \"Complaint.sol\":3327:3441  require(... */\n      0x04\n      dup3\n      add\n        /* \"#utility.yul\":5993:6014   */\n      mstore\n        /* \"#utility.yul\":6050:6052   */\n      0x1d\n        /* \"#utility.yul\":6030:6048   */\n      0x24\n      dup3\n      add\n        /* \"#utility.yul\":6023:6053   */\n      mstore\n        /* \"#utility.yul\":6089:6120   */\n      0x436f6d706c61696e7420697320616c7265616479207265736f6c766564000000\n        /* \"#utility.yul\":6069:6087   */\n      0x44\n      dup3\n      add\n        /* \"#utility.yul\":6062:6121   */\n      mstore\n        /* \"#utility.yul\":6138:6156   */\n      0x64\n      add\n        /* \"Complaint.sol\":3327:3441  require(... */\n      tag_86\n        /* \"#utility.yul\":5809:6162   */\n      jump\n        /* \"Complaint.sol\":3327:3441  require(... */\n    tag_95:\n        /* \"Complaint.sol\":3452:3467  Complaints[_id] */\n      0x00\n      dup3\n      dup2\n      mstore\n        /* \"Complaint.sol\":3452:3462  Complaints */\n      0x06\n        /* \"Complaint.sol\":3452:3467  Complaints[_id] */\n      0x20\n      dup2\n      swap1\n      mstore\n      0x40\n      swap1\n      swap2\n      keccak256\n        /* \"Complaint.sol\":3452:3478  Complaints[_id].isResolved */\n      swap1\n      dup2\n      add\n        /* \"Complaint.sol\":3452:3485  Complaints[_id].isResolved = true */\n      dup1\n      sload\n      not(0xff00)\n      and\n      0x0100\n      or\n      swap1\n      sstore\n        /* \"Complaint.sol\":3496:3528  Complaints[_id].resolutionRemark */\n      0x05\n      add\n        /* \"Complaint.sol\":3496:3548  Complaints[_id].resolutionRemark = _resolutionRemark */\n      tag_98\n        /* \"Complaint.sol\":3531:3548  _resolutionRemark */\n      dup3\n        /* \"Complaint.sol\":3496:3528  Complaints[_id].resolutionRemark */\n      dup3\n        /* \"Complaint.sol\":3496:3548  Complaints[_id].resolutionRemark = _resolutionRemark */\n      tag_99\n      jump\t// in\n    tag_98:\n      pop\n        /* \"Complaint.sol\":2955:3556  function resolveComplaint(uint256 _id, string memory _resolutionRemark)... */\n      pop\n      pop\n      jump\t// out\n        /* \"Complaint.sol\":3922:4331  function calcPendingResolutionIds() public {... */\n    tag_28:\n        /* \"Complaint.sol\":3976:4001  delete pendingResolutions */\n      tag_101\n        /* \"Complaint.sol\":3983:4001  pendingResolutions */\n      0x04\n      0x00\n        /* \"Complaint.sol\":3976:4001  delete pendingResolutions */\n      tag_76\n      jump\t// in\n    tag_101:\n        /* \"Complaint.sol\":4029:4030  1 */\n      0x01\n        /* \"Complaint.sol\":4012:4324  for (uint256 i = 1; i < nextId; i++) {... */\n    tag_102:\n        /* \"Complaint.sol\":4036:4042  nextId */\n      sload(0x02)\n        /* \"Complaint.sol\":4032:4033  i */\n      dup2\n        /* \"Complaint.sol\":4032:4042  i < nextId */\n      lt\n        /* \"Complaint.sol\":4012:4324  for (uint256 i = 1; i < nextId; i++) {... */\n      iszero\n      tag_78\n      jumpi\n        /* \"Complaint.sol\":4086:4099  Complaints[i] */\n      0x00\n      dup2\n      dup2\n      mstore\n        /* \"Complaint.sol\":4086:4096  Complaints */\n      0x06\n        /* \"Complaint.sol\":4086:4099  Complaints[i] */\n      0x20\n      dup2\n      swap1\n      mstore\n      0x40\n      swap1\n      swap2\n      keccak256\n        /* \"Complaint.sol\":4086:4110  Complaints[i].isResolved */\n      add\n      sload\n      0x0100\n      swap1\n      div\n      0xff\n      and\n        /* \"Complaint.sol\":4086:4119  Complaints[i].isResolved == false */\n      iszero\n      dup1\n      iszero\n        /* \"Complaint.sol\":4086:4172  Complaints[i].isResolved == false &&... */\n      tag_105\n      jumpi\n      pop\n        /* \"Complaint.sol\":4140:4153  Complaints[i] */\n      0x00\n      dup2\n      dup2\n      mstore\n        /* \"Complaint.sol\":4140:4150  Complaints */\n      0x06\n        /* \"Complaint.sol\":4140:4153  Complaints[i] */\n      0x20\n      dup2\n      swap1\n      mstore\n      0x40\n      swap1\n      swap2\n      keccak256\n        /* \"Complaint.sol\":4140:4164  Complaints[i].isApproved */\n      add\n      sload\n      0xff\n      and\n        /* \"Complaint.sol\":4140:4172  Complaints[i].isApproved == true */\n      iszero\n      iszero\n        /* \"Complaint.sol\":4140:4164  Complaints[i].isApproved */\n      0x01\n        /* \"Complaint.sol\":4140:4172  Complaints[i].isApproved == true */\n      eq\n        /* \"Complaint.sol\":4086:4172  Complaints[i].isResolved == false &&... */\n    tag_105:\n        /* \"Complaint.sol\":4086:4221  Complaints[i].isResolved == false &&... */\n      dup1\n      iszero\n      tag_106\n      jumpi\n      pop\n        /* \"Complaint.sol\":4193:4206  Complaints[i] */\n      0x00\n      dup2\n      dup2\n      mstore\n        /* \"Complaint.sol\":4193:4203  Complaints */\n      0x06\n        /* \"Complaint.sol\":4193:4206  Complaints[i] */\n      0x20\n      dup2\n      swap1\n      mstore\n      0x40\n      swap1\n      swap2\n      keccak256\n        /* \"Complaint.sol\":4193:4213  Complaints[i].exists */\n      add\n      sload\n      0x010000\n      swap1\n      div\n      0xff\n      and\n        /* \"Complaint.sol\":4193:4221  Complaints[i].exists == true */\n      iszero\n      iszero\n        /* \"Complaint.sol\":4217:4221  true */\n      0x01\n        /* \"Complaint.sol\":4193:4221  Complaints[i].exists == true */\n      eq\n        /* \"Complaint.sol\":4086:4221  Complaints[i].isResolved == false &&... */\n    tag_106:\n        /* \"Complaint.sol\":4064:4313  if (... */\n      iszero\n      tag_107\n      jumpi\n        /* \"Complaint.sol\":4280:4293  Complaints[i] */\n      0x00\n      dup2\n      dup2\n      mstore\n        /* \"Complaint.sol\":4280:4290  Complaints */\n      0x06\n        /* \"Complaint.sol\":4280:4293  Complaints[i] */\n      0x20\n      mstore\n      0x40\n      dup2\n      keccak256\n        /* \"Complaint.sol\":4280:4296  Complaints[i].id */\n      sload\n        /* \"Complaint.sol\":4256:4274  pendingResolutions */\n      0x04\n        /* \"Complaint.sol\":4256:4297  pendingResolutions.push(Complaints[i].id) */\n      dup1\n      sload\n      0x01\n      dup2\n      add\n      dup3\n      sstore\n      swap3\n      mstore\n      0x8a35acfbc15ff81a39ae7d344fd709f28e8600b4aa8c65c6b64bfe7fe36bd19b\n      swap1\n      swap2\n      add\n      sstore\n        /* \"Complaint.sol\":4064:4313  if (... */\n    tag_107:\n        /* \"Complaint.sol\":4044:4047  i++ */\n      dup1\n      tag_109\n      dup2\n      tag_83\n      jump\t// in\n    tag_109:\n      swap2\n      pop\n      pop\n        /* \"Complaint.sol\":4012:4324  for (uint256 i = 1; i < nextId; i++) {... */\n      jump(tag_102)\n        /* \"Complaint.sol\":4602:4701  function setOfficerAddress(address _officer) public onlyOwner {... */\n    tag_32:\n        /* \"Complaint.sol\":484:489  owner */\n      and(sub(shl(0xa0, 0x01), 0x01), sload(0x01))\n        /* \"Complaint.sol\":470:480  msg.sender */\n      caller\n        /* \"Complaint.sol\":470:489  msg.sender == owner */\n      eq\n        /* \"Complaint.sol\":448:561  require(... */\n      tag_111\n      jumpi\n      mload(0x40)\n      shl(0xe5, 0x461bcd)\n      dup2\n      mstore\n        /* \"#utility.yul\":8958:8960   */\n      0x20\n        /* \"Complaint.sol\":448:561  require(... */\n      0x04\n      dup3\n      add\n        /* \"#utility.yul\":8940:8961   */\n      mstore\n        /* \"#utility.yul\":8997:8999   */\n      0x2c\n        /* \"#utility.yul\":8977:8995   */\n      0x24\n      dup3\n      add\n        /* \"#utility.yul\":8970:9000   */\n      mstore\n        /* \"#utility.yul\":9036:9070   */\n      0x596f7520617265206e6f7420746865206f776e6572206f66207468697320736d\n        /* \"#utility.yul\":9016:9034   */\n      0x44\n      dup3\n      add\n        /* \"#utility.yul\":9009:9071   */\n      mstore\n        /* \"#utility.yul\":9107:9121   */\n      0x61727420636f6e74726163740000000000000000000000000000000000000000\n        /* \"#utility.yul\":9087:9105   */\n      0x64\n      dup3\n      add\n        /* \"#utility.yul\":9080:9122   */\n      mstore\n        /* \"#utility.yul\":9139:9158   */\n      0x84\n      add\n        /* \"Complaint.sol\":448:561  require(... */\n      tag_86\n        /* \"#utility.yul\":8756:9164   */\n      jump\n        /* \"Complaint.sol\":448:561  require(... */\n    tag_111:\n        /* \"Complaint.sol\":4675:4682  officer */\n      0x00\n        /* \"Complaint.sol\":4675:4693  officer = _officer */\n      dup1\n      sload\n      not(0xffffffffffffffffffffffffffffffffffffffff)\n      and\n      sub(shl(0xa0, 0x01), 0x01)\n      swap3\n      swap1\n      swap3\n      and\n      swap2\n      swap1\n      swap2\n      or\n      swap1\n      sstore\n        /* \"Complaint.sol\":4602:4701  function setOfficerAddress(address _officer) public onlyOwner {... */\n      jump\t// out\n        /* \"Complaint.sol\":252:282  uint256[] public resolvedCases */\n    tag_36:\n      0x05\n      dup2\n      dup2\n      sload\n      dup2\n      lt\n      tag_115\n      jumpi\n      0x00\n      dup1\n      revert\n    tag_115:\n      0x00\n      swap2\n      dup3\n      mstore\n      0x20\n      swap1\n      swap2\n      keccak256\n      add\n      sload\n      swap1\n      pop\n      dup2\n      jump\t// out\n        /* \"Complaint.sol\":170:203  uint256[] public pendingApprovals */\n    tag_44:\n      0x03\n      dup2\n      dup2\n      sload\n      dup2\n      lt\n      tag_115\n      jumpi\n      0x00\n      dup1\n      revert\n        /* \"Complaint.sol\":1235:1900  function fileComplaint(string memory _title, string memory _description)... */\n    tag_49:\n        /* \"Complaint.sol\":1384:1390  nextId */\n      0x02\n      dup1\n      sload\n        /* \"Complaint.sol\":1340:1370  complaint storage newComplaint */\n      0x00\n        /* \"Complaint.sol\":1373:1391  Complaints[nextId] */\n      dup2\n      dup2\n      mstore\n        /* \"Complaint.sol\":1373:1383  Complaints */\n      0x06\n        /* \"Complaint.sol\":1373:1391  Complaints[nextId] */\n      0x20\n      mstore\n      0x40\n      swap1\n      keccak256\n        /* \"Complaint.sol\":1402:1426  newComplaint.id = nextId */\n      swap1\n      dup2\n      sstore\n        /* \"Complaint.sol\":1437:1471  newComplaint.complaintRegisteredBy */\n      0x01\n      dup2\n      add\n        /* \"Complaint.sol\":1437:1484  newComplaint.complaintRegisteredBy = msg.sender */\n      dup1\n      sload\n      not(0xffffffffffffffffffffffffffffffffffffffff)\n      and\n        /* \"Complaint.sol\":1474:1484  msg.sender */\n      caller\n        /* \"Complaint.sol\":1437:1484  newComplaint.complaintRegisteredBy = msg.sender */\n      or\n      swap1\n      sstore\n        /* \"Complaint.sol\":1373:1391  Complaints[nextId] */\n      swap1\n        /* \"Complaint.sol\":1495:1513  newComplaint.title */\n      dup2\n      add\n        /* \"Complaint.sol\":1495:1522  newComplaint.title = _title */\n      tag_120\n        /* \"Complaint.sol\":1516:1522  _title */\n      dup5\n        /* \"Complaint.sol\":1495:1513  newComplaint.title */\n      dup3\n        /* \"Complaint.sol\":1495:1522  newComplaint.title = _title */\n      tag_99\n      jump\t// in\n    tag_120:\n      pop\n        /* \"Complaint.sol\":1533:1557  newComplaint.description */\n      0x03\n      dup2\n      add\n        /* \"Complaint.sol\":1533:1572  newComplaint.description = _description */\n      tag_121\n        /* \"Complaint.sol\":1560:1572  _description */\n      dup4\n        /* \"Complaint.sol\":1533:1557  newComplaint.description */\n      dup3\n        /* \"Complaint.sol\":1533:1572  newComplaint.description = _description */\n      tag_99\n      jump\t// in\n    tag_121:\n      pop\n        /* \"Complaint.sol\":1583:1631  newComplaint.approvalRemark = \"Pending Approval\" */\n      0x40\n      dup1\n      mload\n      dup1\n      dup3\n      add\n      swap1\n      swap2\n      mstore\n      0x10\n      dup2\n      mstore\n      0x50656e64696e6720417070726f76616c00000000000000000000000000000000\n      0x20\n      dup3\n      add\n      mstore\n        /* \"Complaint.sol\":1583:1610  newComplaint.approvalRemark */\n      0x04\n      dup3\n      add\n      swap1\n        /* \"Complaint.sol\":1583:1631  newComplaint.approvalRemark = \"Pending Approval\" */\n      tag_122\n      swap1\n        /* \"Complaint.sol\":1583:1610  newComplaint.approvalRemark */\n      dup3\n        /* \"Complaint.sol\":1583:1631  newComplaint.approvalRemark = \"Pending Approval\" */\n      tag_99\n      jump\t// in\n    tag_122:\n      pop\n        /* \"Complaint.sol\":1642:1694  newComplaint.resolutionRemark = \"Pending Resolution\" */\n      0x40\n      dup1\n      mload\n      dup1\n      dup3\n      add\n      swap1\n      swap2\n      mstore\n      0x12\n      dup2\n      mstore\n      0x50656e64696e67205265736f6c7574696f6e0000000000000000000000000000\n      0x20\n      dup3\n      add\n      mstore\n        /* \"Complaint.sol\":1642:1671  newComplaint.resolutionRemark */\n      0x05\n      dup3\n      add\n      swap1\n        /* \"Complaint.sol\":1642:1694  newComplaint.resolutionRemark = \"Pending Resolution\" */\n      tag_123\n      swap1\n        /* \"Complaint.sol\":1642:1671  newComplaint.resolutionRemark */\n      dup3\n        /* \"Complaint.sol\":1642:1694  newComplaint.resolutionRemark = \"Pending Resolution\" */\n      tag_99\n      jump\t// in\n    tag_123:\n      pop\n        /* \"Complaint.sol\":1705:1728  newComplaint.isApproved */\n      0x06\n      dup2\n      add\n        /* \"Complaint.sol\":1705:1736  newComplaint.isApproved = false */\n      dup1\n      sload\n      not(0xffffff)\n        /* \"Complaint.sol\":1789:1815  newComplaint.exists = true */\n      and\n      0x010000\n      or\n      swap1\n      sstore\n        /* \"Complaint.sol\":1789:1808  newComplaint.exists */\n      0x02\n        /* \"Complaint.sol\":1846:1852  nextId */\n      sload\n        /* \"Complaint.sol\":1831:1873  complaintFiled(nextId, msg.sender, _title) */\n      mload(0x40)\n      0xdeb4e2a7c73777ecde924d94281fa19efd33da9ff6f4e0c7ede16fa01fa3051d\n      swap2\n      tag_124\n      swap2\n        /* \"Complaint.sol\":1854:1864  msg.sender */\n      caller\n      swap1\n        /* \"Complaint.sol\":1866:1872  _title */\n      dup8\n      swap1\n        /* \"Complaint.sol\":1831:1873  complaintFiled(nextId, msg.sender, _title) */\n      tag_125\n      jump\t// in\n    tag_124:\n      mload(0x40)\n      dup1\n      swap2\n      sub\n      swap1\n      log1\n        /* \"Complaint.sol\":1884:1890  nextId */\n      0x02\n        /* \"Complaint.sol\":1884:1892  nextId++ */\n      dup1\n      sload\n      swap1\n        /* \"Complaint.sol\":1884:1890  nextId */\n      0x00\n        /* \"Complaint.sol\":1884:1892  nextId++ */\n      tag_126\n      dup4\n      tag_83\n      jump\t// in\n    tag_126:\n      swap2\n      swap1\n      pop\n      sstore\n      pop\n        /* \"Complaint.sol\":1329:1900  {... */\n      pop\n        /* \"Complaint.sol\":1235:1900  function fileComplaint(string memory _title, string memory _description)... */\n      pop\n      pop\n      jump\t// out\n        /* \"Complaint.sol\":1059:1106  mapping(uint256 => complaint) public Complaints */\n    tag_56:\n      mstore(0x20, 0x06)\n      0x00\n      swap1\n      dup2\n      mstore\n      0x40\n      swap1\n      keccak256\n      dup1\n      sload\n      0x01\n      dup3\n      add\n      sload\n      0x02\n      dup4\n      add\n      dup1\n      sload\n      swap3\n      swap4\n      sub(shl(0xa0, 0x01), 0x01)\n      swap1\n      swap3\n      and\n      swap3\n      tag_127\n      swap1\n      tag_128\n      jump\t// in\n    tag_127:\n      dup1\n      0x1f\n      add\n      0x20\n      dup1\n      swap2\n      div\n      mul\n      0x20\n      add\n      mload(0x40)\n      swap1\n      dup2\n      add\n      0x40\n      mstore\n      dup1\n      swap3\n      swap2\n      swap1\n      dup2\n      dup2\n      mstore\n      0x20\n      add\n      dup3\n      dup1\n      sload\n      tag_129\n      swap1\n      tag_128\n      jump\t// in\n    tag_129:\n      dup1\n      iszero\n      tag_130\n      jumpi\n      dup1\n      0x1f\n      lt\n      tag_131\n      jumpi\n      0x0100\n      dup1\n      dup4\n      sload\n      div\n      mul\n      dup4\n      mstore\n      swap2\n      0x20\n      add\n      swap2\n      jump(tag_130)\n    tag_131:\n      dup3\n      add\n      swap2\n      swap1\n      0x00\n      mstore\n      keccak256(0x00, 0x20)\n      swap1\n    tag_132:\n      dup2\n      sload\n      dup2\n      mstore\n      swap1\n      0x01\n      add\n      swap1\n      0x20\n      add\n      dup1\n      dup4\n      gt\n      tag_132\n      jumpi\n      dup3\n      swap1\n      sub\n      0x1f\n      and\n      dup3\n      add\n      swap2\n    tag_130:\n      pop\n      pop\n      pop\n      pop\n      pop\n      swap1\n      dup1\n      0x03\n      add\n      dup1\n      sload\n      tag_133\n      swap1\n      tag_128\n      jump\t// in\n    tag_133:\n      dup1\n      0x1f\n      add\n      0x20\n      dup1\n      swap2\n      div\n      mul\n      0x20\n      add\n      mload(0x40)\n      swap1\n      dup2\n      add\n      0x40\n      mstore\n      dup1\n      swap3\n      swap2\n      swap1\n      dup2\n      dup2\n      mstore\n      0x20\n      add\n      dup3\n      dup1\n      sload\n      tag_134\n      swap1\n      tag_128\n      jump\t// in\n    tag_134:\n      dup1\n      iszero\n      tag_135\n      jumpi\n      dup1\n      0x1f\n      lt\n      tag_136\n      jumpi\n      0x0100\n      dup1\n      dup4\n      sload\n      div\n      mul\n      dup4\n      mstore\n      swap2\n      0x20\n      add\n      swap2\n      jump(tag_135)\n    tag_136:\n      dup3\n      add\n      swap2\n      swap1\n      0x00\n      mstore\n      keccak256(0x00, 0x20)\n      swap1\n    tag_137:\n      dup2\n      sload\n      dup2\n      mstore\n      swap1\n      0x01\n      add\n      swap1\n      0x20\n      add\n      dup1\n      dup4\n      gt\n      tag_137\n      jumpi\n      dup3\n      swap1\n      sub\n      0x1f\n      and\n      dup3\n      add\n      swap2\n    tag_135:\n      pop\n      pop\n      pop\n      pop\n      pop\n      swap1\n      dup1\n      0x04\n      add\n      dup1\n      sload\n      tag_138\n      swap1\n      tag_128\n      jump\t// in\n    tag_138:\n      dup1\n      0x1f\n      add\n      0x20\n      dup1\n      swap2\n      div\n      mul\n      0x20\n      add\n      mload(0x40)\n      swap1\n      dup2\n      add\n      0x40\n      mstore\n      dup1\n      swap3\n      swap2\n      swap1\n      dup2\n      dup2\n      mstore\n      0x20\n      add\n      dup3\n      dup1\n      sload\n      tag_139\n      swap1\n      tag_128\n      jump\t// in\n    tag_139:\n      dup1\n      iszero\n      tag_140\n      jumpi\n      dup1\n      0x1f\n      lt\n      tag_141\n      jumpi\n      0x0100\n      dup1\n      dup4\n      sload\n      div\n      mul\n      dup4\n      mstore\n      swap2\n      0x20\n      add\n      swap2\n      jump(tag_140)\n    tag_141:\n      dup3\n      add\n      swap2\n      swap1\n      0x00\n      mstore\n      keccak256(0x00, 0x20)\n      swap1\n    tag_142:\n      dup2\n      sload\n      dup2\n      mstore\n      swap1\n      0x01\n      add\n      swap1\n      0x20\n      add\n      dup1\n      dup4\n      gt\n      tag_142\n      jumpi\n      dup3\n      swap1\n      sub\n      0x1f\n      and\n      dup3\n      add\n      swap2\n    tag_140:\n      pop\n      pop\n      pop\n      pop\n      pop\n      swap1\n      dup1\n      0x05\n      add\n      dup1\n      sload\n      tag_143\n      swap1\n      tag_128\n      jump\t// in\n    tag_143:\n      dup1\n      0x1f\n      add\n      0x20\n      dup1\n      swap2\n      div\n      mul\n      0x20\n      add\n      mload(0x40)\n      swap1\n      dup2\n      add\n      0x40\n      mstore\n      dup1\n      swap3\n      swap2\n      swap1\n      dup2\n      dup2\n      mstore\n      0x20\n      add\n      dup3\n      dup1\n      sload\n      tag_144\n      swap1\n      tag_128\n      jump\t// in\n    tag_144:\n      dup1\n      iszero\n      tag_145\n      jumpi\n      dup1\n      0x1f\n      lt\n      tag_146\n      jumpi\n      0x0100\n      dup1\n      dup4\n      sload\n      div\n      mul\n      dup4\n      mstore\n      swap2\n      0x20\n      add\n      swap2\n      jump(tag_145)\n    tag_146:\n      dup3\n      add\n      swap2\n      swap1\n      0x00\n      mstore\n      keccak256(0x00, 0x20)\n      swap1\n    tag_147:\n      dup2\n      sload\n      dup2\n      mstore\n      swap1\n      0x01\n      add\n      swap1\n      0x20\n      add\n      dup1\n      dup4\n      gt\n      tag_147\n      jumpi\n      dup3\n      swap1\n      sub\n      0x1f\n      and\n      dup3\n      add\n      swap2\n    tag_145:\n      pop\n      pop\n      pop\n      0x06\n      swap1\n      swap4\n      add\n      sload\n      swap2\n      swap3\n      pop\n      pop\n      0xff\n      dup1\n      dup3\n      and\n      swap2\n      0x0100\n      dup2\n      div\n      dup3\n      and\n      swap2\n      0x010000\n      swap1\n      swap2\n      div\n      and\n      dup10\n      jump\t// out\n        /* \"Complaint.sol\":2387:2947  function discardComplaint(uint256 _id, string memory _approvalRemark)... */\n    tag_61:\n        /* \"Complaint.sol\":659:666  officer */\n      and(sub(shl(0xa0, 0x01), 0x01), sload(0x00))\n        /* \"Complaint.sol\":645:655  msg.sender */\n      caller\n        /* \"Complaint.sol\":645:666  msg.sender == officer */\n      eq\n        /* \"Complaint.sol\":623:747  require(... */\n      tag_149\n      jumpi\n      mload(0x40)\n      shl(0xe5, 0x461bcd)\n      dup2\n      mstore\n        /* \"#utility.yul\":4870:4872   */\n      0x20\n        /* \"Complaint.sol\":623:747  require(... */\n      0x04\n      dup3\n      add\n        /* \"#utility.yul\":4852:4873   */\n      mstore\n        /* \"#utility.yul\":4909:4911   */\n      0x35\n        /* \"#utility.yul\":4889:4907   */\n      0x24\n      dup3\n      add\n        /* \"#utility.yul\":4882:4912   */\n      mstore\n        /* \"#utility.yul\":4948:4982   */\n      0x596f7520617265206e6f742072656769737465726564206f666669636572206f\n        /* \"#utility.yul\":4928:4946   */\n      0x44\n      dup3\n      add\n        /* \"#utility.yul\":4921:4983   */\n      mstore\n        /* \"#utility.yul\":5019:5042   */\n      0x66207468697320736d61727420636f6e74726163740000000000000000000000\n        /* \"#utility.yul\":4999:5017   */\n      0x64\n      dup3\n      add\n        /* \"#utility.yul\":4992:5043   */\n      mstore\n        /* \"#utility.yul\":5060:5079   */\n      0x84\n      add\n        /* \"Complaint.sol\":623:747  require(... */\n      tag_86\n        /* \"#utility.yul\":4668:5085   */\n      jump\n        /* \"Complaint.sol\":623:747  require(... */\n    tag_149:\n        /* \"Complaint.sol\":2532:2547  Complaints[_id] */\n      0x00\n      dup3\n      dup2\n      mstore\n        /* \"Complaint.sol\":2532:2542  Complaints */\n      0x06\n        /* \"Complaint.sol\":2532:2547  Complaints[_id] */\n      0x20\n      dup2\n      swap1\n      mstore\n      0x40\n      swap1\n      swap2\n      keccak256\n        /* \"Complaint.sol\":2532:2554  Complaints[_id].exists */\n      add\n      sload\n      0x010000\n      swap1\n      div\n      0xff\n      and\n        /* \"Complaint.sol\":2532:2562  Complaints[_id].exists == true */\n      iszero\n      iszero\n        /* \"Complaint.sol\":2558:2562  true */\n      0x01\n        /* \"Complaint.sol\":2532:2562  Complaints[_id].exists == true */\n      eq\n        /* \"Complaint.sol\":2510:2622  require(... */\n      tag_152\n      jumpi\n      mload(0x40)\n      shl(0xe5, 0x461bcd)\n      dup2\n      mstore\n        /* \"#utility.yul\":5292:5294   */\n      0x20\n        /* \"Complaint.sol\":2510:2622  require(... */\n      0x04\n      dup3\n      add\n        /* \"#utility.yul\":5274:5295   */\n      dup2\n      swap1\n      mstore\n        /* \"#utility.yul\":5311:5329   */\n      0x24\n      dup3\n      add\n        /* \"#utility.yul\":5304:5334   */\n      mstore\n        /* \"#utility.yul\":5370:5404   */\n      0x5468697320636f6d706c61696e7420696420646f6573206e6f74206578697374\n        /* \"#utility.yul\":5350:5368   */\n      0x44\n      dup3\n      add\n        /* \"#utility.yul\":5343:5405   */\n      mstore\n        /* \"#utility.yul\":5422:5440   */\n      0x64\n      add\n        /* \"Complaint.sol\":2510:2622  require(... */\n      tag_86\n        /* \"#utility.yul\":5090:5446   */\n      jump\n        /* \"Complaint.sol\":2510:2622  require(... */\n    tag_152:\n        /* \"Complaint.sol\":2655:2670  Complaints[_id] */\n      0x00\n      dup3\n      dup2\n      mstore\n        /* \"Complaint.sol\":2655:2665  Complaints */\n      0x06\n        /* \"Complaint.sol\":2655:2670  Complaints[_id] */\n      0x20\n      dup2\n      swap1\n      mstore\n      0x40\n      swap1\n      swap2\n      keccak256\n        /* \"Complaint.sol\":2655:2681  Complaints[_id].isApproved */\n      add\n      sload\n      0xff\n      and\n        /* \"Complaint.sol\":2655:2690  Complaints[_id].isApproved == false */\n      iszero\n        /* \"Complaint.sol\":2633:2747  require(... */\n      tag_154\n      jumpi\n      mload(0x40)\n      shl(0xe5, 0x461bcd)\n      dup2\n      mstore\n        /* \"#utility.yul\":9787:9789   */\n      0x20\n        /* \"Complaint.sol\":2633:2747  require(... */\n      0x04\n      dup3\n      add\n        /* \"#utility.yul\":9769:9790   */\n      mstore\n        /* \"#utility.yul\":9826:9828   */\n      0x1d\n        /* \"#utility.yul\":9806:9824   */\n      0x24\n      dup3\n      add\n        /* \"#utility.yul\":9799:9829   */\n      mstore\n        /* \"#utility.yul\":9865:9896   */\n      0x436f6d706c61696e7420697320616c726561647920617070726f766564000000\n        /* \"#utility.yul\":9845:9863   */\n      0x44\n      dup3\n      add\n        /* \"#utility.yul\":9838:9897   */\n      mstore\n        /* \"#utility.yul\":9914:9932   */\n      0x64\n      add\n        /* \"Complaint.sol\":2633:2747  require(... */\n      tag_86\n        /* \"#utility.yul\":9585:9938   */\n      jump\n        /* \"Complaint.sol\":2633:2747  require(... */\n    tag_154:\n        /* \"Complaint.sol\":2783:2788  false */\n      0x00\n        /* \"Complaint.sol\":2758:2773  Complaints[_id] */\n      dup3\n      dup2\n      mstore\n        /* \"Complaint.sol\":2758:2768  Complaints */\n      0x06\n        /* \"Complaint.sol\":2758:2773  Complaints[_id] */\n      0x20\n      dup2\n      dup2\n      mstore\n      0x40\n      swap3\n      dup4\n      swap1\n      keccak256\n        /* \"Complaint.sol\":2758:2780  Complaints[_id].exists */\n      swap1\n      swap2\n      add\n        /* \"Complaint.sol\":2758:2788  Complaints[_id].exists = false */\n      dup1\n      sload\n      not(0xff0000)\n      and\n      swap1\n      sstore\n        /* \"Complaint.sol\":2832:2939  string.concat(... */\n      swap1\n      mload\n      tag_157\n      swap2\n        /* \"Complaint.sol\":2913:2928  _approvalRemark */\n      dup4\n      swap2\n        /* \"Complaint.sol\":2832:2939  string.concat(... */\n      add\n      tag_158\n      jump\t// in\n    tag_157:\n      0x40\n      dup1\n      mload\n      not(0x1f)\n      dup2\n      dup5\n      sub\n      add\n      dup2\n      mstore\n      swap2\n      dup2\n      mstore\n        /* \"Complaint.sol\":2799:2814  Complaints[_id] */\n      0x00\n      dup5\n      dup2\n      mstore\n        /* \"Complaint.sol\":2799:2809  Complaints */\n      0x06\n        /* \"Complaint.sol\":2832:2939  string.concat(... */\n      0x20\n        /* \"Complaint.sol\":2799:2814  Complaints[_id] */\n      mstore\n      keccak256\n        /* \"Complaint.sol\":2799:2829  Complaints[_id].approvalRemark */\n      0x04\n      add\n      swap1\n        /* \"Complaint.sol\":2799:2939  Complaints[_id].approvalRemark = string.concat(... */\n      tag_98\n      swap1\n        /* \"Complaint.sol\":2799:2829  Complaints[_id].approvalRemark */\n      dup3\n        /* \"Complaint.sol\":2799:2939  Complaints[_id].approvalRemark = string.concat(... */\n      tag_99\n      jump\t// in\n        /* \"Complaint.sol\":3564:3914  function calcPendingApprovalIds() public {... */\n    tag_66:\n        /* \"Complaint.sol\":3616:3639  delete pendingApprovals */\n      tag_161\n        /* \"Complaint.sol\":3623:3639  pendingApprovals */\n      0x03\n      0x00\n        /* \"Complaint.sol\":3616:3639  delete pendingApprovals */\n      tag_76\n      jump\t// in\n    tag_161:\n        /* \"Complaint.sol\":3667:3668  1 */\n      0x01\n        /* \"Complaint.sol\":3650:3907  for (uint256 i = 1; i < nextId; i++) {... */\n    tag_162:\n        /* \"Complaint.sol\":3674:3680  nextId */\n      sload(0x02)\n        /* \"Complaint.sol\":3670:3671  i */\n      dup2\n        /* \"Complaint.sol\":3670:3680  i < nextId */\n      lt\n        /* \"Complaint.sol\":3650:3907  for (uint256 i = 1; i < nextId; i++) {... */\n      iszero\n      tag_78\n      jumpi\n        /* \"Complaint.sol\":3724:3737  Complaints[i] */\n      0x00\n      dup2\n      dup2\n      mstore\n        /* \"Complaint.sol\":3724:3734  Complaints */\n      0x06\n        /* \"Complaint.sol\":3724:3737  Complaints[i] */\n      0x20\n      dup2\n      swap1\n      mstore\n      0x40\n      swap1\n      swap2\n      keccak256\n        /* \"Complaint.sol\":3724:3748  Complaints[i].isApproved */\n      add\n      sload\n      0xff\n      and\n        /* \"Complaint.sol\":3724:3757  Complaints[i].isApproved == false */\n      iszero\n      dup1\n      iszero\n        /* \"Complaint.sol\":3724:3806  Complaints[i].isApproved == false &&... */\n      tag_165\n      jumpi\n      pop\n        /* \"Complaint.sol\":3778:3791  Complaints[i] */\n      0x00\n      dup2\n      dup2\n      mstore\n        /* \"Complaint.sol\":3778:3788  Complaints */\n      0x06\n        /* \"Complaint.sol\":3778:3791  Complaints[i] */\n      0x20\n      dup2\n      swap1\n      mstore\n      0x40\n      swap1\n      swap2\n      keccak256\n        /* \"Complaint.sol\":3778:3798  Complaints[i].exists */\n      add\n      sload\n      0x010000\n      swap1\n      div\n      0xff\n      and\n        /* \"Complaint.sol\":3778:3806  Complaints[i].exists == true */\n      iszero\n      iszero\n        /* \"Complaint.sol\":3802:3806  true */\n      0x01\n        /* \"Complaint.sol\":3778:3806  Complaints[i].exists == true */\n      eq\n        /* \"Complaint.sol\":3724:3806  Complaints[i].isApproved == false &&... */\n    tag_165:\n        /* \"Complaint.sol\":3702:3896  if (... */\n      iszero\n      tag_166\n      jumpi\n        /* \"Complaint.sol\":3863:3876  Complaints[i] */\n      0x00\n      dup2\n      dup2\n      mstore\n        /* \"Complaint.sol\":3863:3873  Complaints */\n      0x06\n        /* \"Complaint.sol\":3863:3876  Complaints[i] */\n      0x20\n      mstore\n      0x40\n      dup2\n      keccak256\n        /* \"Complaint.sol\":3863:3879  Complaints[i].id */\n      sload\n        /* \"Complaint.sol\":3841:3857  pendingApprovals */\n      0x03\n        /* \"Complaint.sol\":3841:3880  pendingApprovals.push(Complaints[i].id) */\n      dup1\n      sload\n      0x01\n      dup2\n      add\n      dup3\n      sstore\n      swap3\n      mstore\n      0xc2575a0e9e593c00f959f8c92f12db2869c3395a3b0502d05e2516446f71f85b\n      swap1\n      swap2\n      add\n      sstore\n        /* \"Complaint.sol\":3702:3896  if (... */\n    tag_166:\n        /* \"Complaint.sol\":3682:3685  i++ */\n      dup1\n      tag_168\n      dup2\n      tag_83\n      jump\t// in\n    tag_168:\n      swap2\n      pop\n      pop\n        /* \"Complaint.sol\":3650:3907  for (uint256 i = 1; i < nextId; i++) {... */\n      jump(tag_162)\n        /* \"Complaint.sol\":1908:2379  function approveComplaint(uint256 _id, string memory _approvalRemark)... */\n    tag_69:\n        /* \"Complaint.sol\":659:666  officer */\n      and(sub(shl(0xa0, 0x01), 0x01), sload(0x00))\n        /* \"Complaint.sol\":645:655  msg.sender */\n      caller\n        /* \"Complaint.sol\":645:666  msg.sender == officer */\n      eq\n        /* \"Complaint.sol\":623:747  require(... */\n      tag_170\n      jumpi\n      mload(0x40)\n      shl(0xe5, 0x461bcd)\n      dup2\n      mstore\n        /* \"#utility.yul\":4870:4872   */\n      0x20\n        /* \"Complaint.sol\":623:747  require(... */\n      0x04\n      dup3\n      add\n        /* \"#utility.yul\":4852:4873   */\n      mstore\n        /* \"#utility.yul\":4909:4911   */\n      0x35\n        /* \"#utility.yul\":4889:4907   */\n      0x24\n      dup3\n      add\n        /* \"#utility.yul\":4882:4912   */\n      mstore\n        /* \"#utility.yul\":4948:4982   */\n      0x596f7520617265206e6f742072656769737465726564206f666669636572206f\n        /* \"#utility.yul\":4928:4946   */\n      0x44\n      dup3\n      add\n        /* \"#utility.yul\":4921:4983   */\n      mstore\n        /* \"#utility.yul\":5019:5042   */\n      0x66207468697320736d61727420636f6e74726163740000000000000000000000\n        /* \"#utility.yul\":4999:5017   */\n      0x64\n      dup3\n      add\n        /* \"#utility.yul\":4992:5043   */\n      mstore\n        /* \"#utility.yul\":5060:5079   */\n      0x84\n      add\n        /* \"Complaint.sol\":623:747  require(... */\n      tag_86\n        /* \"#utility.yul\":4668:5085   */\n      jump\n        /* \"Complaint.sol\":623:747  require(... */\n    tag_170:\n        /* \"Complaint.sol\":2053:2068  Complaints[_id] */\n      0x00\n      dup3\n      dup2\n      mstore\n        /* \"Complaint.sol\":2053:2063  Complaints */\n      0x06\n        /* \"Complaint.sol\":2053:2068  Complaints[_id] */\n      0x20\n      dup2\n      swap1\n      mstore\n      0x40\n      swap1\n      swap2\n      keccak256\n        /* \"Complaint.sol\":2053:2075  Complaints[_id].exists */\n      add\n      sload\n      0x010000\n      swap1\n      div\n      0xff\n      and\n        /* \"Complaint.sol\":2053:2083  Complaints[_id].exists == true */\n      iszero\n      iszero\n        /* \"Complaint.sol\":2079:2083  true */\n      0x01\n        /* \"Complaint.sol\":2053:2083  Complaints[_id].exists == true */\n      eq\n        /* \"Complaint.sol\":2031:2143  require(... */\n      tag_173\n      jumpi\n      mload(0x40)\n      shl(0xe5, 0x461bcd)\n      dup2\n      mstore\n        /* \"#utility.yul\":5292:5294   */\n      0x20\n        /* \"Complaint.sol\":2031:2143  require(... */\n      0x04\n      dup3\n      add\n        /* \"#utility.yul\":5274:5295   */\n      dup2\n      swap1\n      mstore\n        /* \"#utility.yul\":5311:5329   */\n      0x24\n      dup3\n      add\n        /* \"#utility.yul\":5304:5334   */\n      mstore\n        /* \"#utility.yul\":5370:5404   */\n      0x5468697320636f6d706c61696e7420696420646f6573206e6f74206578697374\n        /* \"#utility.yul\":5350:5368   */\n      0x44\n      dup3\n      add\n        /* \"#utility.yul\":5343:5405   */\n      mstore\n        /* \"#utility.yul\":5422:5440   */\n      0x64\n      add\n        /* \"Complaint.sol\":2031:2143  require(... */\n      tag_86\n        /* \"#utility.yul\":5090:5446   */\n      jump\n        /* \"Complaint.sol\":2031:2143  require(... */\n    tag_173:\n        /* \"Complaint.sol\":2176:2191  Complaints[_id] */\n      0x00\n      dup3\n      dup2\n      mstore\n        /* \"Complaint.sol\":2176:2186  Complaints */\n      0x06\n        /* \"Complaint.sol\":2176:2191  Complaints[_id] */\n      0x20\n      dup2\n      swap1\n      mstore\n      0x40\n      swap1\n      swap2\n      keccak256\n        /* \"Complaint.sol\":2176:2202  Complaints[_id].isApproved */\n      add\n      sload\n      0xff\n      and\n        /* \"Complaint.sol\":2176:2211  Complaints[_id].isApproved == false */\n      iszero\n        /* \"Complaint.sol\":2154:2268  require(... */\n      tag_175\n      jumpi\n      mload(0x40)\n      shl(0xe5, 0x461bcd)\n      dup2\n      mstore\n        /* \"#utility.yul\":9787:9789   */\n      0x20\n        /* \"Complaint.sol\":2154:2268  require(... */\n      0x04\n      dup3\n      add\n        /* \"#utility.yul\":9769:9790   */\n      mstore\n        /* \"#utility.yul\":9826:9828   */\n      0x1d\n        /* \"#utility.yul\":9806:9824   */\n      0x24\n      dup3\n      add\n        /* \"#utility.yul\":9799:9829   */\n      mstore\n        /* \"#utility.yul\":9865:9896   */\n      0x436f6d706c61696e7420697320616c726561647920617070726f766564000000\n        /* \"#utility.yul\":9845:9863   */\n      0x44\n      dup3\n      add\n        /* \"#utility.yul\":9838:9897   */\n      mstore\n        /* \"#utility.yul\":9914:9932   */\n      0x64\n      add\n        /* \"Complaint.sol\":2154:2268  require(... */\n      tag_86\n        /* \"#utility.yul\":9585:9938   */\n      jump\n        /* \"Complaint.sol\":2154:2268  require(... */\n    tag_175:\n        /* \"Complaint.sol\":2279:2294  Complaints[_id] */\n      0x00\n      dup3\n      dup2\n      mstore\n        /* \"Complaint.sol\":2279:2289  Complaints */\n      0x06\n        /* \"Complaint.sol\":2279:2294  Complaints[_id] */\n      0x20\n      dup2\n      swap1\n      mstore\n      0x40\n      swap1\n      swap2\n      keccak256\n        /* \"Complaint.sol\":2279:2305  Complaints[_id].isApproved */\n      swap1\n      dup2\n      add\n        /* \"Complaint.sol\":2279:2312  Complaints[_id].isApproved = true */\n      dup1\n      sload\n      not(0xff)\n      and\n        /* \"Complaint.sol\":2308:2312  true */\n      0x01\n        /* \"Complaint.sol\":2279:2312  Complaints[_id].isApproved = true */\n      or\n      swap1\n      sstore\n        /* \"Complaint.sol\":2323:2353  Complaints[_id].approvalRemark */\n      0x04\n      add\n        /* \"Complaint.sol\":2323:2371  Complaints[_id].approvalRemark = _approvalRemark */\n      tag_98\n        /* \"Complaint.sol\":2356:2371  _approvalRemark */\n      dup3\n        /* \"Complaint.sol\":2323:2353  Complaints[_id].approvalRemark */\n      dup3\n        /* \"Complaint.sol\":2323:2371  Complaints[_id].approvalRemark = _approvalRemark */\n      tag_99\n      jump\t// in\n        /* \"Complaint.sol\":210:245  uint256[] public pendingResolutions */\n    tag_72:\n      0x04\n      dup2\n      dup2\n      sload\n      dup2\n      lt\n      tag_115\n      jumpi\n      0x00\n      dup1\n      revert\n    tag_76:\n      pop\n      dup1\n      sload\n      0x00\n      dup3\n      sstore\n      swap1\n      0x00\n      mstore\n      keccak256(0x00, 0x20)\n      swap1\n      dup2\n      add\n      swap1\n      tag_78\n      swap2\n      swap1\n    tag_183:\n      dup1\n      dup3\n      gt\n      iszero\n      tag_184\n      jumpi\n      0x00\n      dup2\n      sstore\n      0x01\n      add\n      jump(tag_183)\n    tag_184:\n      pop\n      swap1\n      jump\t// out\n        /* \"#utility.yul\":14:141   */\n    tag_185:\n        /* \"#utility.yul\":75:85   */\n      0x4e487b71\n        /* \"#utility.yul\":70:73   */\n      0xe0\n        /* \"#utility.yul\":66:86   */\n      shl\n        /* \"#utility.yul\":63:64   */\n      0x00\n        /* \"#utility.yul\":56:87   */\n      mstore\n        /* \"#utility.yul\":106:110   */\n      0x41\n        /* \"#utility.yul\":103:104   */\n      0x04\n        /* \"#utility.yul\":96:111   */\n      mstore\n        /* \"#utility.yul\":130:134   */\n      0x24\n        /* \"#utility.yul\":127:128   */\n      0x00\n        /* \"#utility.yul\":120:135   */\n      revert\n        /* \"#utility.yul\":146:865   */\n    tag_186:\n        /* \"#utility.yul\":189:194   */\n      0x00\n        /* \"#utility.yul\":242:245   */\n      dup3\n        /* \"#utility.yul\":235:239   */\n      0x1f\n        /* \"#utility.yul\":227:233   */\n      dup4\n        /* \"#utility.yul\":223:240   */\n      add\n        /* \"#utility.yul\":219:246   */\n      slt\n        /* \"#utility.yul\":209:264   */\n      tag_195\n      jumpi\n        /* \"#utility.yul\":260:261   */\n      0x00\n        /* \"#utility.yul\":257:258   */\n      dup1\n        /* \"#utility.yul\":250:262   */\n      revert\n        /* \"#utility.yul\":209:264   */\n    tag_195:\n        /* \"#utility.yul\":296:302   */\n      dup2\n        /* \"#utility.yul\":283:303   */\n      calldataload\n        /* \"#utility.yul\":322:340   */\n      0xffffffffffffffff\n        /* \"#utility.yul\":359:361   */\n      dup1\n        /* \"#utility.yul\":355:357   */\n      dup3\n        /* \"#utility.yul\":352:362   */\n      gt\n        /* \"#utility.yul\":349:385   */\n      iszero\n      tag_197\n      jumpi\n        /* \"#utility.yul\":365:383   */\n      tag_197\n      tag_185\n      jump\t// in\n    tag_197:\n        /* \"#utility.yul\":440:442   */\n      0x40\n        /* \"#utility.yul\":434:443   */\n      mload\n        /* \"#utility.yul\":408:410   */\n      0x1f\n        /* \"#utility.yul\":494:507   */\n      dup4\n      add\n      not(0x1f)\n        /* \"#utility.yul\":490:512   */\n      swap1\n      dup2\n      and\n        /* \"#utility.yul\":514:516   */\n      0x3f\n        /* \"#utility.yul\":486:517   */\n      add\n        /* \"#utility.yul\":482:522   */\n      and\n        /* \"#utility.yul\":470:523   */\n      dup2\n      add\n      swap1\n        /* \"#utility.yul\":538:556   */\n      dup3\n      dup3\n      gt\n        /* \"#utility.yul\":558:580   */\n      dup2\n      dup4\n      lt\n        /* \"#utility.yul\":535:581   */\n      or\n        /* \"#utility.yul\":532:604   */\n      iszero\n      tag_199\n      jumpi\n        /* \"#utility.yul\":584:602   */\n      tag_199\n      tag_185\n      jump\t// in\n    tag_199:\n        /* \"#utility.yul\":624:634   */\n      dup2\n        /* \"#utility.yul\":620:622   */\n      0x40\n        /* \"#utility.yul\":613:635   */\n      mstore\n        /* \"#utility.yul\":659:661   */\n      dup4\n        /* \"#utility.yul\":651:657   */\n      dup2\n        /* \"#utility.yul\":644:662   */\n      mstore\n        /* \"#utility.yul\":705:708   */\n      dup7\n        /* \"#utility.yul\":698:702   */\n      0x20\n        /* \"#utility.yul\":693:695   */\n      dup6\n        /* \"#utility.yul\":685:691   */\n      dup9\n        /* \"#utility.yul\":681:696   */\n      add\n        /* \"#utility.yul\":677:703   */\n      add\n        /* \"#utility.yul\":674:709   */\n      gt\n        /* \"#utility.yul\":671:726   */\n      iszero\n      tag_200\n      jumpi\n        /* \"#utility.yul\":722:723   */\n      0x00\n        /* \"#utility.yul\":719:720   */\n      dup1\n        /* \"#utility.yul\":712:724   */\n      revert\n        /* \"#utility.yul\":671:726   */\n    tag_200:\n        /* \"#utility.yul\":786:788   */\n      dup4\n        /* \"#utility.yul\":779:783   */\n      0x20\n        /* \"#utility.yul\":771:777   */\n      dup8\n        /* \"#utility.yul\":767:784   */\n      add\n        /* \"#utility.yul\":760:764   */\n      0x20\n        /* \"#utility.yul\":752:758   */\n      dup4\n        /* \"#utility.yul\":748:765   */\n      add\n        /* \"#utility.yul\":735:789   */\n      calldatacopy\n        /* \"#utility.yul\":833:834   */\n      0x00\n        /* \"#utility.yul\":826:830   */\n      0x20\n        /* \"#utility.yul\":821:823   */\n      dup6\n        /* \"#utility.yul\":813:819   */\n      dup4\n        /* \"#utility.yul\":809:824   */\n      add\n        /* \"#utility.yul\":805:831   */\n      add\n        /* \"#utility.yul\":798:835   */\n      mstore\n        /* \"#utility.yul\":853:859   */\n      dup1\n        /* \"#utility.yul\":844:859   */\n      swap5\n      pop\n      pop\n      pop\n      pop\n      pop\n        /* \"#utility.yul\":146:865   */\n      swap3\n      swap2\n      pop\n      pop\n      jump\t// out\n        /* \"#utility.yul\":870:1260   */\n    tag_25:\n        /* \"#utility.yul\":948:954   */\n      0x00\n        /* \"#utility.yul\":956:962   */\n      dup1\n        /* \"#utility.yul\":1009:1011   */\n      0x40\n        /* \"#utility.yul\":997:1006   */\n      dup4\n        /* \"#utility.yul\":988:995   */\n      dup6\n        /* \"#utility.yul\":984:1007   */\n      sub\n        /* \"#utility.yul\":980:1012   */\n      slt\n        /* \"#utility.yul\":977:1029   */\n      iszero\n      tag_202\n      jumpi\n        /* \"#utility.yul\":1025:1026   */\n      0x00\n        /* \"#utility.yul\":1022:1023   */\n      dup1\n        /* \"#utility.yul\":1015:1027   */\n      revert\n        /* \"#utility.yul\":977:1029   */\n    tag_202:\n        /* \"#utility.yul\":1061:1070   */\n      dup3\n        /* \"#utility.yul\":1048:1071   */\n      calldataload\n        /* \"#utility.yul\":1038:1071   */\n      swap2\n      pop\n        /* \"#utility.yul\":1122:1124   */\n      0x20\n        /* \"#utility.yul\":1111:1120   */\n      dup4\n        /* \"#utility.yul\":1107:1125   */\n      add\n        /* \"#utility.yul\":1094:1126   */\n      calldataload\n        /* \"#utility.yul\":1149:1167   */\n      0xffffffffffffffff\n        /* \"#utility.yul\":1141:1147   */\n      dup2\n        /* \"#utility.yul\":1138:1168   */\n      gt\n        /* \"#utility.yul\":1135:1185   */\n      iszero\n      tag_203\n      jumpi\n        /* \"#utility.yul\":1181:1182   */\n      0x00\n        /* \"#utility.yul\":1178:1179   */\n      dup1\n        /* \"#utility.yul\":1171:1183   */\n      revert\n        /* \"#utility.yul\":1135:1185   */\n    tag_203:\n        /* \"#utility.yul\":1204:1254   */\n      tag_204\n        /* \"#utility.yul\":1246:1253   */\n      dup6\n        /* \"#utility.yul\":1237:1243   */\n      dup3\n        /* \"#utility.yul\":1226:1235   */\n      dup7\n        /* \"#utility.yul\":1222:1244   */\n      add\n        /* \"#utility.yul\":1204:1254   */\n      tag_186\n      jump\t// in\n    tag_204:\n        /* \"#utility.yul\":1194:1254   */\n      swap2\n      pop\n      pop\n        /* \"#utility.yul\":870:1260   */\n      swap3\n      pop\n      swap3\n      swap1\n      pop\n      jump\t// out\n        /* \"#utility.yul\":1265:1574   */\n    tag_31:\n        /* \"#utility.yul\":1324:1330   */\n      0x00\n        /* \"#utility.yul\":1377:1379   */\n      0x20\n        /* \"#utility.yul\":1365:1374   */\n      dup3\n        /* \"#utility.yul\":1356:1363   */\n      dup5\n        /* \"#utility.yul\":1352:1375   */\n      sub\n        /* \"#utility.yul\":1348:1380   */\n      slt\n        /* \"#utility.yul\":1345:1397   */\n      iszero\n      tag_206\n      jumpi\n        /* \"#utility.yul\":1393:1394   */\n      0x00\n        /* \"#utility.yul\":1390:1391   */\n      dup1\n        /* \"#utility.yul\":1383:1395   */\n      revert\n        /* \"#utility.yul\":1345:1397   */\n    tag_206:\n        /* \"#utility.yul\":1432:1441   */\n      dup2\n        /* \"#utility.yul\":1419:1442   */\n      calldataload\n      sub(shl(0xa0, 0x01), 0x01)\n        /* \"#utility.yul\":1475:1480   */\n      dup2\n        /* \"#utility.yul\":1471:1525   */\n      and\n        /* \"#utility.yul\":1464:1469   */\n      dup2\n        /* \"#utility.yul\":1461:1526   */\n      eq\n        /* \"#utility.yul\":1451:1544   */\n      tag_207\n      jumpi\n        /* \"#utility.yul\":1540:1541   */\n      0x00\n        /* \"#utility.yul\":1537:1538   */\n      dup1\n        /* \"#utility.yul\":1530:1542   */\n      revert\n        /* \"#utility.yul\":1451:1544   */\n    tag_207:\n        /* \"#utility.yul\":1563:1568   */\n      swap4\n        /* \"#utility.yul\":1265:1574   */\n      swap3\n      pop\n      pop\n      pop\n      jump\t// out\n        /* \"#utility.yul\":1579:1759   */\n    tag_35:\n        /* \"#utility.yul\":1638:1644   */\n      0x00\n        /* \"#utility.yul\":1691:1693   */\n      0x20\n        /* \"#utility.yul\":1679:1688   */\n      dup3\n        /* \"#utility.yul\":1670:1677   */\n      dup5\n        /* \"#utility.yul\":1666:1689   */\n      sub\n        /* \"#utility.yul\":1662:1694   */\n      slt\n        /* \"#utility.yul\":1659:1711   */\n      iszero\n      tag_209\n      jumpi\n        /* \"#utility.yul\":1707:1708   */\n      0x00\n        /* \"#utility.yul\":1704:1705   */\n      dup1\n        /* \"#utility.yul\":1697:1709   */\n      revert\n        /* \"#utility.yul\":1659:1711   */\n    tag_209:\n      pop\n        /* \"#utility.yul\":1730:1753   */\n      calldataload\n      swap2\n        /* \"#utility.yul\":1579:1759   */\n      swap1\n      pop\n      jump\t// out\n        /* \"#utility.yul\":1946:2489   */\n    tag_48:\n        /* \"#utility.yul\":2034:2040   */\n      0x00\n        /* \"#utility.yul\":2042:2048   */\n      dup1\n        /* \"#utility.yul\":2095:2097   */\n      0x40\n        /* \"#utility.yul\":2083:2092   */\n      dup4\n        /* \"#utility.yul\":2074:2081   */\n      dup6\n        /* \"#utility.yul\":2070:2093   */\n      sub\n        /* \"#utility.yul\":2066:2098   */\n      slt\n        /* \"#utility.yul\":2063:2115   */\n      iszero\n      tag_212\n      jumpi\n        /* \"#utility.yul\":2111:2112   */\n      0x00\n        /* \"#utility.yul\":2108:2109   */\n      dup1\n        /* \"#utility.yul\":2101:2113   */\n      revert\n        /* \"#utility.yul\":2063:2115   */\n    tag_212:\n        /* \"#utility.yul\":2151:2160   */\n      dup3\n        /* \"#utility.yul\":2138:2161   */\n      calldataload\n        /* \"#utility.yul\":2180:2198   */\n      0xffffffffffffffff\n        /* \"#utility.yul\":2221:2223   */\n      dup1\n        /* \"#utility.yul\":2213:2219   */\n      dup3\n        /* \"#utility.yul\":2210:2224   */\n      gt\n        /* \"#utility.yul\":2207:2241   */\n      iszero\n      tag_213\n      jumpi\n        /* \"#utility.yul\":2237:2238   */\n      0x00\n        /* \"#utility.yul\":2234:2235   */\n      dup1\n        /* \"#utility.yul\":2227:2239   */\n      revert\n        /* \"#utility.yul\":2207:2241   */\n    tag_213:\n        /* \"#utility.yul\":2260:2310   */\n      tag_214\n        /* \"#utility.yul\":2302:2309   */\n      dup7\n        /* \"#utility.yul\":2293:2299   */\n      dup4\n        /* \"#utility.yul\":2282:2291   */\n      dup8\n        /* \"#utility.yul\":2278:2300   */\n      add\n        /* \"#utility.yul\":2260:2310   */\n      tag_186\n      jump\t// in\n    tag_214:\n        /* \"#utility.yul\":2250:2310   */\n      swap4\n      pop\n        /* \"#utility.yul\":2363:2365   */\n      0x20\n        /* \"#utility.yul\":2352:2361   */\n      dup6\n        /* \"#utility.yul\":2348:2366   */\n      add\n        /* \"#utility.yul\":2335:2367   */\n      calldataload\n        /* \"#utility.yul\":2319:2367   */\n      swap2\n      pop\n        /* \"#utility.yul\":2392:2394   */\n      dup1\n        /* \"#utility.yul\":2382:2390   */\n      dup3\n        /* \"#utility.yul\":2379:2395   */\n      gt\n        /* \"#utility.yul\":2376:2412   */\n      iszero\n      tag_215\n      jumpi\n        /* \"#utility.yul\":2408:2409   */\n      0x00\n        /* \"#utility.yul\":2405:2406   */\n      dup1\n        /* \"#utility.yul\":2398:2410   */\n      revert\n        /* \"#utility.yul\":2376:2412   */\n    tag_215:\n      pop\n        /* \"#utility.yul\":2431:2483   */\n      tag_204\n        /* \"#utility.yul\":2475:2482   */\n      dup6\n        /* \"#utility.yul\":2464:2472   */\n      dup3\n        /* \"#utility.yul\":2453:2462   */\n      dup7\n        /* \"#utility.yul\":2449:2473   */\n      add\n        /* \"#utility.yul\":2431:2483   */\n      tag_186\n      jump\t// in\n        /* \"#utility.yul\":2725:2975   */\n    tag_187:\n        /* \"#utility.yul\":2810:2811   */\n      0x00\n        /* \"#utility.yul\":2820:2933   */\n    tag_219:\n        /* \"#utility.yul\":2834:2840   */\n      dup4\n        /* \"#utility.yul\":2831:2832   */\n      dup2\n        /* \"#utility.yul\":2828:2841   */\n      lt\n        /* \"#utility.yul\":2820:2933   */\n      iszero\n      tag_221\n      jumpi\n        /* \"#utility.yul\":2910:2921   */\n      dup2\n      dup2\n      add\n        /* \"#utility.yul\":2904:2922   */\n      mload\n        /* \"#utility.yul\":2891:2902   */\n      dup4\n      dup3\n      add\n        /* \"#utility.yul\":2884:2923   */\n      mstore\n        /* \"#utility.yul\":2856:2858   */\n      0x20\n        /* \"#utility.yul\":2849:2859   */\n      add\n        /* \"#utility.yul\":2820:2933   */\n      jump(tag_219)\n    tag_221:\n      pop\n      pop\n        /* \"#utility.yul\":2967:2968   */\n      0x00\n        /* \"#utility.yul\":2949:2965   */\n      swap2\n      add\n        /* \"#utility.yul\":2942:2969   */\n      mstore\n        /* \"#utility.yul\":2725:2975   */\n      jump\t// out\n        /* \"#utility.yul\":2980:3251   */\n    tag_188:\n        /* \"#utility.yul\":3022:3025   */\n      0x00\n        /* \"#utility.yul\":3060:3065   */\n      dup2\n        /* \"#utility.yul\":3054:3066   */\n      mload\n        /* \"#utility.yul\":3087:3093   */\n      dup1\n        /* \"#utility.yul\":3082:3085   */\n      dup5\n        /* \"#utility.yul\":3075:3094   */\n      mstore\n        /* \"#utility.yul\":3103:3179   */\n      tag_223\n        /* \"#utility.yul\":3172:3178   */\n      dup2\n        /* \"#utility.yul\":3165:3169   */\n      0x20\n        /* \"#utility.yul\":3160:3163   */\n      dup7\n        /* \"#utility.yul\":3156:3170   */\n      add\n        /* \"#utility.yul\":3149:3153   */\n      0x20\n        /* \"#utility.yul\":3142:3147   */\n      dup7\n        /* \"#utility.yul\":3138:3154   */\n      add\n        /* \"#utility.yul\":3103:3179   */\n      tag_187\n      jump\t// in\n    tag_223:\n        /* \"#utility.yul\":3233:3235   */\n      0x1f\n        /* \"#utility.yul\":3212:3227   */\n      add\n      not(0x1f)\n        /* \"#utility.yul\":3208:3237   */\n      and\n        /* \"#utility.yul\":3199:3238   */\n      swap3\n      swap1\n      swap3\n      add\n        /* \"#utility.yul\":3240:3244   */\n      0x20\n        /* \"#utility.yul\":3195:3245   */\n      add\n      swap3\n        /* \"#utility.yul\":2980:3251   */\n      swap2\n      pop\n      pop\n      jump\t// out\n        /* \"#utility.yul\":3256:4426   */\n    tag_58:\n        /* \"#utility.yul\":3634:3638   */\n      0x00\n        /* \"#utility.yul\":3663:3666   */\n      0x0120\n        /* \"#utility.yul\":3693:3699   */\n      dup12\n        /* \"#utility.yul\":3682:3691   */\n      dup4\n        /* \"#utility.yul\":3675:3700   */\n      mstore\n      sub(shl(0xa0, 0x01), 0x01)\n        /* \"#utility.yul\":3740:3746   */\n      dup12\n        /* \"#utility.yul\":3736:3791   */\n      and\n        /* \"#utility.yul\":3731:3733   */\n      0x20\n        /* \"#utility.yul\":3720:3729   */\n      dup5\n        /* \"#utility.yul\":3716:3734   */\n      add\n        /* \"#utility.yul\":3709:3792   */\n      mstore\n        /* \"#utility.yul\":3828:3830   */\n      dup1\n        /* \"#utility.yul\":3823:3825   */\n      0x40\n        /* \"#utility.yul\":3812:3821   */\n      dup5\n        /* \"#utility.yul\":3808:3826   */\n      add\n        /* \"#utility.yul\":3801:3831   */\n      mstore\n        /* \"#utility.yul\":3854:3899   */\n      tag_225\n        /* \"#utility.yul\":3895:3897   */\n      dup2\n        /* \"#utility.yul\":3884:3893   */\n      dup5\n        /* \"#utility.yul\":3880:3898   */\n      add\n        /* \"#utility.yul\":3872:3878   */\n      dup12\n        /* \"#utility.yul\":3854:3899   */\n      tag_188\n      jump\t// in\n    tag_225:\n        /* \"#utility.yul\":3840:3899   */\n      swap1\n      pop\n        /* \"#utility.yul\":3947:3956   */\n      dup3\n        /* \"#utility.yul\":3939:3945   */\n      dup2\n        /* \"#utility.yul\":3935:3957   */\n      sub\n        /* \"#utility.yul\":3930:3932   */\n      0x60\n        /* \"#utility.yul\":3919:3928   */\n      dup5\n        /* \"#utility.yul\":3915:3933   */\n      add\n        /* \"#utility.yul\":3908:3958   */\n      mstore\n        /* \"#utility.yul\":3981:4014   */\n      tag_226\n        /* \"#utility.yul\":4007:4013   */\n      dup2\n        /* \"#utility.yul\":3999:4005   */\n      dup11\n        /* \"#utility.yul\":3981:4014   */\n      tag_188\n      jump\t// in\n    tag_226:\n        /* \"#utility.yul\":3967:4014   */\n      swap1\n      pop\n        /* \"#utility.yul\":4063:4072   */\n      dup3\n        /* \"#utility.yul\":4055:4061   */\n      dup2\n        /* \"#utility.yul\":4051:4073   */\n      sub\n        /* \"#utility.yul\":4045:4048   */\n      0x80\n        /* \"#utility.yul\":4034:4043   */\n      dup5\n        /* \"#utility.yul\":4030:4049   */\n      add\n        /* \"#utility.yul\":4023:4074   */\n      mstore\n        /* \"#utility.yul\":4097:4130   */\n      tag_227\n        /* \"#utility.yul\":4123:4129   */\n      dup2\n        /* \"#utility.yul\":4115:4121   */\n      dup10\n        /* \"#utility.yul\":4097:4130   */\n      tag_188\n      jump\t// in\n    tag_227:\n        /* \"#utility.yul\":4083:4130   */\n      swap1\n      pop\n        /* \"#utility.yul\":4179:4188   */\n      dup3\n        /* \"#utility.yul\":4171:4177   */\n      dup2\n        /* \"#utility.yul\":4167:4189   */\n      sub\n        /* \"#utility.yul\":4161:4164   */\n      0xa0\n        /* \"#utility.yul\":4150:4159   */\n      dup5\n        /* \"#utility.yul\":4146:4165   */\n      add\n        /* \"#utility.yul\":4139:4190   */\n      mstore\n        /* \"#utility.yul\":4207:4240   */\n      tag_228\n        /* \"#utility.yul\":4233:4239   */\n      dup2\n        /* \"#utility.yul\":4225:4231   */\n      dup9\n        /* \"#utility.yul\":4207:4240   */\n      tag_188\n      jump\t// in\n    tag_228:\n        /* \"#utility.yul\":4284:4298   */\n      swap6\n      iszero\n        /* \"#utility.yul\":4277:4299   */\n      iszero\n        /* \"#utility.yul\":4271:4274   */\n      0xc0\n        /* \"#utility.yul\":4256:4275   */\n      dup5\n      add\n        /* \"#utility.yul\":4249:4300   */\n      mstore\n      pop\n      pop\n        /* \"#utility.yul\":4344:4358   */\n      swap2\n      iszero\n        /* \"#utility.yul\":4337:4359   */\n      iszero\n        /* \"#utility.yul\":4331:4334   */\n      0xe0\n        /* \"#utility.yul\":4316:4335   */\n      dup4\n      add\n        /* \"#utility.yul\":4309:4360   */\n      mstore\n        /* \"#utility.yul\":4404:4418   */\n      iszero\n        /* \"#utility.yul\":4397:4419   */\n      iszero\n        /* \"#utility.yul\":4391:4394   */\n      0x0100\n        /* \"#utility.yul\":4376:4395   */\n      swap1\n      swap2\n      add\n        /* \"#utility.yul\":4369:4420   */\n      mstore\n        /* \"#utility.yul\":4199:4240   */\n      swap7\n        /* \"#utility.yul\":3256:4426   */\n      swap6\n      pop\n      pop\n      pop\n      pop\n      pop\n      pop\n      jump\t// out\n        /* \"#utility.yul\":4431:4663   */\n    tag_83:\n        /* \"#utility.yul\":4470:4473   */\n      0x00\n        /* \"#utility.yul\":4491:4508   */\n      0x01\n      dup3\n      add\n        /* \"#utility.yul\":4488:4628   */\n      tag_230\n      jumpi\n        /* \"#utility.yul\":4550:4560   */\n      0x4e487b71\n        /* \"#utility.yul\":4545:4548   */\n      0xe0\n        /* \"#utility.yul\":4541:4561   */\n      shl\n        /* \"#utility.yul\":4538:4539   */\n      0x00\n        /* \"#utility.yul\":4531:4562   */\n      mstore\n        /* \"#utility.yul\":4585:4589   */\n      0x11\n        /* \"#utility.yul\":4582:4583   */\n      0x04\n        /* \"#utility.yul\":4575:4590   */\n      mstore\n        /* \"#utility.yul\":4613:4617   */\n      0x24\n        /* \"#utility.yul\":4610:4611   */\n      0x00\n        /* \"#utility.yul\":4603:4618   */\n      revert\n        /* \"#utility.yul\":4488:4628   */\n    tag_230:\n      pop\n        /* \"#utility.yul\":4655:4656   */\n      0x01\n        /* \"#utility.yul\":4644:4657   */\n      add\n      swap1\n        /* \"#utility.yul\":4431:4663   */\n      jump\t// out\n        /* \"#utility.yul\":6167:6547   */\n    tag_128:\n        /* \"#utility.yul\":6246:6247   */\n      0x01\n        /* \"#utility.yul\":6242:6254   */\n      dup2\n      dup2\n      shr\n      swap1\n        /* \"#utility.yul\":6289:6301   */\n      dup3\n      and\n      dup1\n        /* \"#utility.yul\":6310:6371   */\n      tag_236\n      jumpi\n        /* \"#utility.yul\":6364:6368   */\n      0x7f\n        /* \"#utility.yul\":6356:6362   */\n      dup3\n        /* \"#utility.yul\":6352:6369   */\n      and\n        /* \"#utility.yul\":6342:6369   */\n      swap2\n      pop\n        /* \"#utility.yul\":6310:6371   */\n    tag_236:\n        /* \"#utility.yul\":6417:6419   */\n      0x20\n        /* \"#utility.yul\":6409:6415   */\n      dup3\n        /* \"#utility.yul\":6406:6420   */\n      lt\n        /* \"#utility.yul\":6386:6404   */\n      dup2\n        /* \"#utility.yul\":6383:6421   */\n      sub\n        /* \"#utility.yul\":6380:6541   */\n      tag_237\n      jumpi\n        /* \"#utility.yul\":6463:6473   */\n      0x4e487b71\n        /* \"#utility.yul\":6458:6461   */\n      0xe0\n        /* \"#utility.yul\":6454:6474   */\n      shl\n        /* \"#utility.yul\":6451:6452   */\n      0x00\n        /* \"#utility.yul\":6444:6475   */\n      mstore\n        /* \"#utility.yul\":6498:6502   */\n      0x22\n        /* \"#utility.yul\":6495:6496   */\n      0x04\n        /* \"#utility.yul\":6488:6503   */\n      mstore\n        /* \"#utility.yul\":6526:6530   */\n      0x24\n        /* \"#utility.yul\":6523:6524   */\n      0x00\n        /* \"#utility.yul\":6516:6531   */\n      revert\n        /* \"#utility.yul\":6380:6541   */\n    tag_237:\n      pop\n        /* \"#utility.yul\":6167:6547   */\n      swap2\n      swap1\n      pop\n      jump\t// out\n        /* \"#utility.yul\":6678:7223   */\n    tag_190:\n        /* \"#utility.yul\":6780:6782   */\n      0x1f\n        /* \"#utility.yul\":6775:6778   */\n      dup3\n        /* \"#utility.yul\":6772:6783   */\n      gt\n        /* \"#utility.yul\":6769:7217   */\n      iszero\n      tag_98\n      jumpi\n        /* \"#utility.yul\":6816:6817   */\n      0x00\n        /* \"#utility.yul\":6841:6846   */\n      dup2\n        /* \"#utility.yul\":6837:6839   */\n      dup2\n        /* \"#utility.yul\":6830:6847   */\n      mstore\n        /* \"#utility.yul\":6886:6890   */\n      0x20\n        /* \"#utility.yul\":6882:6884   */\n      dup2\n        /* \"#utility.yul\":6872:6891   */\n      keccak256\n        /* \"#utility.yul\":6956:6958   */\n      0x1f\n        /* \"#utility.yul\":6944:6954   */\n      dup6\n        /* \"#utility.yul\":6940:6959   */\n      add\n        /* \"#utility.yul\":6937:6938   */\n      0x05\n        /* \"#utility.yul\":6933:6960   */\n      shr\n        /* \"#utility.yul\":6927:6931   */\n      dup2\n        /* \"#utility.yul\":6923:6961   */\n      add\n        /* \"#utility.yul\":6992:6996   */\n      0x20\n        /* \"#utility.yul\":6980:6990   */\n      dup7\n        /* \"#utility.yul\":6977:6997   */\n      lt\n        /* \"#utility.yul\":6974:7021   */\n      iszero\n      tag_241\n      jumpi\n      pop\n        /* \"#utility.yul\":7015:7019   */\n      dup1\n        /* \"#utility.yul\":6974:7021   */\n    tag_241:\n        /* \"#utility.yul\":7070:7072   */\n      0x1f\n        /* \"#utility.yul\":7065:7068   */\n      dup6\n        /* \"#utility.yul\":7061:7073   */\n      add\n        /* \"#utility.yul\":7058:7059   */\n      0x05\n        /* \"#utility.yul\":7054:7074   */\n      shr\n        /* \"#utility.yul\":7048:7052   */\n      dup3\n        /* \"#utility.yul\":7044:7075   */\n      add\n        /* \"#utility.yul\":7034:7075   */\n      swap2\n      pop\n        /* \"#utility.yul\":7125:7207   */\n    tag_242:\n        /* \"#utility.yul\":7143:7145   */\n      dup2\n        /* \"#utility.yul\":7136:7141   */\n      dup2\n        /* \"#utility.yul\":7133:7146   */\n      lt\n        /* \"#utility.yul\":7125:7207   */\n      iszero\n      tag_244\n      jumpi\n        /* \"#utility.yul\":7188:7205   */\n      dup3\n      dup2\n      sstore\n        /* \"#utility.yul\":7169:7170   */\n      0x01\n        /* \"#utility.yul\":7158:7171   */\n      add\n        /* \"#utility.yul\":7125:7207   */\n      jump(tag_242)\n    tag_244:\n        /* \"#utility.yul\":7129:7132   */\n      pop\n      pop\n      pop\n        /* \"#utility.yul\":6678:7223   */\n      pop\n      pop\n      pop\n      jump\t// out\n        /* \"#utility.yul\":7399:8751   */\n    tag_99:\n        /* \"#utility.yul\":7525:7528   */\n      dup2\n        /* \"#utility.yul\":7519:7529   */\n      mload\n        /* \"#utility.yul\":7552:7570   */\n      0xffffffffffffffff\n        /* \"#utility.yul\":7544:7550   */\n      dup2\n        /* \"#utility.yul\":7541:7571   */\n      gt\n        /* \"#utility.yul\":7538:7594   */\n      iszero\n      tag_248\n      jumpi\n        /* \"#utility.yul\":7574:7592   */\n      tag_248\n      tag_185\n      jump\t// in\n    tag_248:\n        /* \"#utility.yul\":7603:7700   */\n      tag_249\n        /* \"#utility.yul\":7693:7699   */\n      dup2\n        /* \"#utility.yul\":7653:7691   */\n      tag_250\n        /* \"#utility.yul\":7685:7689   */\n      dup5\n        /* \"#utility.yul\":7679:7690   */\n      sload\n        /* \"#utility.yul\":7653:7691   */\n      tag_128\n      jump\t// in\n    tag_250:\n        /* \"#utility.yul\":7647:7651   */\n      dup5\n        /* \"#utility.yul\":7603:7700   */\n      tag_190\n      jump\t// in\n    tag_249:\n        /* \"#utility.yul\":7755:7759   */\n      0x20\n      dup1\n        /* \"#utility.yul\":7819:7821   */\n      0x1f\n        /* \"#utility.yul\":7808:7822   */\n      dup4\n      gt\n        /* \"#utility.yul\":7836:7837   */\n      0x01\n        /* \"#utility.yul\":7831:8494   */\n      dup2\n      eq\n      tag_252\n      jumpi\n        /* \"#utility.yul\":8538:8539   */\n      0x00\n        /* \"#utility.yul\":8555:8561   */\n      dup5\n        /* \"#utility.yul\":8552:8641   */\n      iszero\n      tag_253\n      jumpi\n      pop\n        /* \"#utility.yul\":8607:8626   */\n      dup6\n      dup4\n      add\n        /* \"#utility.yul\":8601:8627   */\n      mload\n        /* \"#utility.yul\":8552:8641   */\n    tag_253:\n      not(0x00)\n        /* \"#utility.yul\":7356:7357   */\n      0x03\n        /* \"#utility.yul\":7352:7363   */\n      dup7\n      swap1\n      shl\n        /* \"#utility.yul\":7348:7372   */\n      shr\n        /* \"#utility.yul\":7344:7373   */\n      not\n        /* \"#utility.yul\":7334:7374   */\n      and\n        /* \"#utility.yul\":7380:7381   */\n      0x01\n        /* \"#utility.yul\":7376:7387   */\n      dup6\n      swap1\n      shl\n        /* \"#utility.yul\":7331:7388   */\n      or\n        /* \"#utility.yul\":8654:8735   */\n      dup6\n      sstore\n        /* \"#utility.yul\":7801:8745   */\n      jump(tag_244)\n        /* \"#utility.yul\":7831:8494   */\n    tag_252:\n        /* \"#utility.yul\":6625:6626   */\n      0x00\n        /* \"#utility.yul\":6618:6632   */\n      dup6\n      dup2\n      mstore\n        /* \"#utility.yul\":6662:6666   */\n      0x20\n        /* \"#utility.yul\":6649:6667   */\n      dup2\n      keccak256\n      not(0x1f)\n        /* \"#utility.yul\":7867:7887   */\n      dup7\n      and\n      swap2\n        /* \"#utility.yul\":7985:8221   */\n    tag_256:\n        /* \"#utility.yul\":7999:8006   */\n      dup3\n        /* \"#utility.yul\":7996:7997   */\n      dup2\n        /* \"#utility.yul\":7993:8007   */\n      lt\n        /* \"#utility.yul\":7985:8221   */\n      iszero\n      tag_258\n      jumpi\n        /* \"#utility.yul\":8088:8107   */\n      dup9\n      dup7\n      add\n        /* \"#utility.yul\":8082:8108   */\n      mload\n        /* \"#utility.yul\":8067:8109   */\n      dup3\n      sstore\n        /* \"#utility.yul\":8180:8207   */\n      swap5\n      dup5\n      add\n      swap5\n        /* \"#utility.yul\":8148:8149   */\n      0x01\n        /* \"#utility.yul\":8136:8150   */\n      swap1\n      swap2\n      add\n      swap1\n        /* \"#utility.yul\":8015:8034   */\n      dup5\n      add\n        /* \"#utility.yul\":7985:8221   */\n      jump(tag_256)\n    tag_258:\n        /* \"#utility.yul\":7989:7992   */\n      pop\n        /* \"#utility.yul\":8249:8255   */\n      dup6\n        /* \"#utility.yul\":8240:8247   */\n      dup3\n        /* \"#utility.yul\":8237:8256   */\n      lt\n        /* \"#utility.yul\":8234:8435   */\n      iszero\n      tag_259\n      jumpi\n        /* \"#utility.yul\":8310:8329   */\n      dup8\n      dup6\n      add\n        /* \"#utility.yul\":8304:8330   */\n      mload\n      not(0x00)\n        /* \"#utility.yul\":8393:8394   */\n      0x03\n        /* \"#utility.yul\":8389:8403   */\n      dup9\n      swap1\n      shl\n        /* \"#utility.yul\":8405:8408   */\n      0xf8\n        /* \"#utility.yul\":8385:8409   */\n      and\n        /* \"#utility.yul\":8381:8418   */\n      shr\n        /* \"#utility.yul\":8377:8419   */\n      not\n        /* \"#utility.yul\":8362:8420   */\n      and\n        /* \"#utility.yul\":8347:8421   */\n      dup2\n      sstore\n        /* \"#utility.yul\":8234:8435   */\n    tag_259:\n      pop\n      pop\n      pop\n      pop\n      pop\n        /* \"#utility.yul\":8481:8482   */\n      0x01\n        /* \"#utility.yul\":8465:8479   */\n      swap1\n      dup2\n      shl\n        /* \"#utility.yul\":8461:8483   */\n      add\n        /* \"#utility.yul\":8448:8484   */\n      swap1\n      sstore\n      pop\n        /* \"#utility.yul\":7399:8751   */\n      jump\t// out\n        /* \"#utility.yul\":9169:9580   */\n    tag_125:\n        /* \"#utility.yul\":9374:9380   */\n      dup4\n        /* \"#utility.yul\":9363:9372   */\n      dup2\n        /* \"#utility.yul\":9356:9381   */\n      mstore\n      sub(shl(0xa0, 0x01), 0x01)\n        /* \"#utility.yul\":9421:9427   */\n      dup4\n        /* \"#utility.yul\":9417:9472   */\n      and\n        /* \"#utility.yul\":9412:9414   */\n      0x20\n        /* \"#utility.yul\":9401:9410   */\n      dup3\n        /* \"#utility.yul\":9397:9415   */\n      add\n        /* \"#utility.yul\":9390:9473   */\n      mstore\n        /* \"#utility.yul\":9509:9511   */\n      0x60\n        /* \"#utility.yul\":9504:9506   */\n      0x40\n        /* \"#utility.yul\":9493:9502   */\n      dup3\n        /* \"#utility.yul\":9489:9507   */\n      add\n        /* \"#utility.yul\":9482:9512   */\n      mstore\n        /* \"#utility.yul\":9337:9341   */\n      0x00\n        /* \"#utility.yul\":9529:9574   */\n      tag_262\n        /* \"#utility.yul\":9570:9572   */\n      0x60\n        /* \"#utility.yul\":9559:9568   */\n      dup4\n        /* \"#utility.yul\":9555:9573   */\n      add\n        /* \"#utility.yul\":9547:9553   */\n      dup5\n        /* \"#utility.yul\":9529:9574   */\n      tag_188\n      jump\t// in\n    tag_262:\n        /* \"#utility.yul\":9521:9574   */\n      swap6\n        /* \"#utility.yul\":9169:9580   */\n      swap5\n      pop\n      pop\n      pop\n      pop\n      pop\n      jump\t// out\n        /* \"#utility.yul\":9943:10442   */\n    tag_158:\n        /* \"#utility.yul\":10205:10239   */\n      0x5468697320636f6d706c61696e742069732072656a65637465642e2052656173\n        /* \"#utility.yul\":10200:10203   */\n      dup2\n        /* \"#utility.yul\":10193:10240   */\n      mstore\n      shl(0xe5, 0x037b71d1)\n        /* \"#utility.yul\":10265:10267   */\n      0x20\n        /* \"#utility.yul\":10260:10263   */\n      dup3\n        /* \"#utility.yul\":10256:10268   */\n      add\n        /* \"#utility.yul\":10249:10277   */\n      mstore\n        /* \"#utility.yul\":10175:10178   */\n      0x00\n        /* \"#utility.yul\":10306:10312   */\n      dup3\n        /* \"#utility.yul\":10300:10313   */\n      mload\n        /* \"#utility.yul\":10322:10395   */\n      tag_265\n        /* \"#utility.yul\":10388:10394   */\n      dup2\n        /* \"#utility.yul\":10383:10385   */\n      0x24\n        /* \"#utility.yul\":10378:10381   */\n      dup6\n        /* \"#utility.yul\":10374:10386   */\n      add\n        /* \"#utility.yul\":10369:10371   */\n      0x20\n        /* \"#utility.yul\":10361:10367   */\n      dup8\n        /* \"#utility.yul\":10357:10372   */\n      add\n        /* \"#utility.yul\":10322:10395   */\n      tag_187\n      jump\t// in\n    tag_265:\n        /* \"#utility.yul\":10415:10431   */\n      swap2\n      swap1\n      swap2\n      add\n        /* \"#utility.yul\":10433:10435   */\n      0x24\n        /* \"#utility.yul\":10411:10436   */\n      add\n      swap3\n        /* \"#utility.yul\":9943:10442   */\n      swap2\n      pop\n      pop\n      jump\t// out\n\n    auxdata: 0xa2646970667358221220a0db5543f972144c4cd7b19b51f77b37b160c44a68b72cb030a84d11c2cd57e664736f6c63430008110033\n}\n",
    "bytecode": {
      "linkReferences": {},
      "object": "608060405234801561001057600080fd5b5060405161137638038061137683398101604081905261002f91610065565b60018054336001600160a01b0319918216178255600080549091166001600160a01b039390931692909217909155600255610095565b60006020828403121561007757600080fd5b81516001600160a01b038116811461008e57600080fd5b9392505050565b6112d2806100a46000396000f3fe608060405234801561001057600080fd5b50600436106100f55760003560e01c80636d1727e911610097578063bc685ce011610066578063bc685ce0146101ed578063cc91163514610200578063d203204214610208578063fecc10211461021b57600080fd5b80636d1727e9146101745780638da5cb5b146101875780639f2b37b0146101b2578063b09cc427146101da57600080fd5b80633c5f15e7116100d35780633c5f15e71461011f5780634de1c8c31461013257806361b8ce8c14610158578063686b656e1461016157600080fd5b80632071be7f146100fa57806326019e7f14610104578063346fed1014610117575b600080fd5b61010261022e565b005b610102610112366004610ee6565b6102c1565b6101026104b5565b61010261012d366004610f2d565b61058e565b610145610140366004610f5d565b61063d565b6040519081526020015b60405180910390f35b61014560025481565b61014561016f366004610f5d565b61065e565b610102610182366004610f76565b61066e565b60015461019a906001600160a01b031681565b6040516001600160a01b03909116815260200161014f565b6101c56101c0366004610f5d565b6107b3565b60405161014f99989796959493929190611020565b6101026101e8366004610ee6565b610a2e565b60005461019a906001600160a01b031681565b610102610bd4565b610102610216366004610ee6565b610c85565b610145610229366004610f5d565b610e01565b61023a60056000610e11565b60015b6002548110156102be5760008181526006602081905260409091200154610100900460ff1615156001036102ac576000818152600660205260408120546005805460018101825592527f036b6384b5eca791c62761152d0c79bb0604c104a5fb6f4eb0703f3154bb3db0909101555b806102b6816110aa565b91505061023d565b50565b6000546001600160a01b031633146103465760405162461bcd60e51b815260206004820152603560248201527f596f7520617265206e6f742072656769737465726564206f666669636572206f60448201527f66207468697320736d61727420636f6e7472616374000000000000000000000060648201526084015b60405180910390fd5b6000828152600660208190526040909120015462010000900460ff1615156001146103b35760405162461bcd60e51b815260206004820181905260248201527f5468697320636f6d706c61696e7420696420646f6573206e6f74206578697374604482015260640161033d565b6000828152600660208190526040909120015460ff16151560011461041a5760405162461bcd60e51b815260206004820152601d60248201527f436f6d706c61696e74206973206e6f742079657420617070726f766564000000604482015260640161033d565b60008281526006602081905260409091200154610100900460ff16156104825760405162461bcd60e51b815260206004820152601d60248201527f436f6d706c61696e7420697320616c7265616479207265736f6c766564000000604482015260640161033d565b6000828152600660208190526040909120908101805461ff0019166101001790556005016104b08282611159565b505050565b6104c160046000610e11565b60015b6002548110156102be5760008181526006602081905260409091200154610100900460ff1615801561050d57506000818152600660208190526040909120015460ff1615156001145b801561053657506000818152600660208190526040909120015462010000900460ff1615156001145b1561057c576000818152600660205260408120546004805460018101825592527f8a35acfbc15ff81a39ae7d344fd709f28e8600b4aa8c65c6b64bfe7fe36bd19b909101555b80610586816110aa565b9150506104c4565b6001546001600160a01b0316331461060e5760405162461bcd60e51b815260206004820152602c60248201527f596f7520617265206e6f7420746865206f776e6572206f66207468697320736d60448201527f61727420636f6e74726163740000000000000000000000000000000000000000606482015260840161033d565b6000805473ffffffffffffffffffffffffffffffffffffffff19166001600160a01b0392909216919091179055565b6005818154811061064d57600080fd5b600091825260209091200154905081565b6003818154811061064d57600080fd5b60028054600081815260066020526040902090815560018101805473ffffffffffffffffffffffffffffffffffffffff1916331790559081016106b18482611159565b50600381016106c08382611159565b5060408051808201909152601081527f50656e64696e6720417070726f76616c00000000000000000000000000000000602082015260048201906107049082611159565b5060408051808201909152601281527f50656e64696e67205265736f6c7574696f6e0000000000000000000000000000602082015260058201906107489082611159565b5060068101805462ffffff1916620100001790556002546040517fdeb4e2a7c73777ecde924d94281fa19efd33da9ff6f4e0c7ede16fa01fa3051d916107919133908790611219565b60405180910390a1600280549060006107a9836110aa565b9190505550505050565b60066020526000908152604090208054600182015460028301805492936001600160a01b03909216926107e5906110d1565b80601f0160208091040260200160405190810160405280929190818152602001828054610811906110d1565b801561085e5780601f106108335761010080835404028352916020019161085e565b820191906000526020600020905b81548152906001019060200180831161084157829003601f168201915b505050505090806003018054610873906110d1565b80601f016020809104026020016040519081016040528092919081815260200182805461089f906110d1565b80156108ec5780601f106108c1576101008083540402835291602001916108ec565b820191906000526020600020905b8154815290600101906020018083116108cf57829003601f168201915b505050505090806004018054610901906110d1565b80601f016020809104026020016040519081016040528092919081815260200182805461092d906110d1565b801561097a5780601f1061094f5761010080835404028352916020019161097a565b820191906000526020600020905b81548152906001019060200180831161095d57829003601f168201915b50505050509080600501805461098f906110d1565b80601f01602080910402602001604051908101604052809291908181526020018280546109bb906110d1565b8015610a085780601f106109dd57610100808354040283529160200191610a08565b820191906000526020600020905b8154815290600101906020018083116109eb57829003601f168201915b5050506006909301549192505060ff808216916101008104821691620100009091041689565b6000546001600160a01b03163314610aae5760405162461bcd60e51b815260206004820152603560248201527f596f7520617265206e6f742072656769737465726564206f666669636572206f60448201527f66207468697320736d61727420636f6e74726163740000000000000000000000606482015260840161033d565b6000828152600660208190526040909120015462010000900460ff161515600114610b1b5760405162461bcd60e51b815260206004820181905260248201527f5468697320636f6d706c61696e7420696420646f6573206e6f74206578697374604482015260640161033d565b6000828152600660208190526040909120015460ff1615610b7e5760405162461bcd60e51b815260206004820152601d60248201527f436f6d706c61696e7420697320616c726561647920617070726f766564000000604482015260640161033d565b600082815260066020818152604092839020909101805462ff0000191690559051610bab9183910161124a565b60408051601f198184030181529181526000848152600660205220600401906104b09082611159565b610be060036000610e11565b60015b6002548110156102be576000818152600660208190526040909120015460ff16158015610c2d57506000818152600660208190526040909120015462010000900460ff1615156001145b15610c73576000818152600660205260408120546003805460018101825592527fc2575a0e9e593c00f959f8c92f12db2869c3395a3b0502d05e2516446f71f85b909101555b80610c7d816110aa565b915050610be3565b6000546001600160a01b03163314610d055760405162461bcd60e51b815260206004820152603560248201527f596f7520617265206e6f742072656769737465726564206f666669636572206f60448201527f66207468697320736d61727420636f6e74726163740000000000000000000000606482015260840161033d565b6000828152600660208190526040909120015462010000900460ff161515600114610d725760405162461bcd60e51b815260206004820181905260248201527f5468697320636f6d706c61696e7420696420646f6573206e6f74206578697374604482015260640161033d565b6000828152600660208190526040909120015460ff1615610dd55760405162461bcd60e51b815260206004820152601d60248201527f436f6d706c61696e7420697320616c726561647920617070726f766564000000604482015260640161033d565b6000828152600660208190526040909120908101805460ff191660011790556004016104b08282611159565b6004818154811061064d57600080fd5b50805460008255906000526020600020908101906102be91905b80821115610e3f5760008155600101610e2b565b5090565b634e487b7160e01b600052604160045260246000fd5b600082601f830112610e6a57600080fd5b813567ffffffffffffffff80821115610e8557610e85610e43565b604051601f8301601f19908116603f01168101908282118183101715610ead57610ead610e43565b81604052838152866020858801011115610ec657600080fd5b836020870160208301376000602085830101528094505050505092915050565b60008060408385031215610ef957600080fd5b82359150602083013567ffffffffffffffff811115610f1757600080fd5b610f2385828601610e59565b9150509250929050565b600060208284031215610f3f57600080fd5b81356001600160a01b0381168114610f5657600080fd5b9392505050565b600060208284031215610f6f57600080fd5b5035919050565b60008060408385031215610f8957600080fd5b823567ffffffffffffffff80821115610fa157600080fd5b610fad86838701610e59565b93506020850135915080821115610fc357600080fd5b50610f2385828601610e59565b60005b83811015610feb578181015183820152602001610fd3565b50506000910152565b6000815180845261100c816020860160208601610fd0565b601f01601f19169290920160200192915050565b60006101208b83526001600160a01b038b1660208401528060408401526110498184018b610ff4565b9050828103606084015261105d818a610ff4565b905082810360808401526110718189610ff4565b905082810360a08401526110858188610ff4565b95151560c0840152505091151560e08301521515610100909101529695505050505050565b6000600182016110ca57634e487b7160e01b600052601160045260246000fd5b5060010190565b600181811c908216806110e557607f821691505b60208210810361110557634e487b7160e01b600052602260045260246000fd5b50919050565b601f8211156104b057600081815260208120601f850160051c810160208610156111325750805b601f850160051c820191505b818110156111515782815560010161113e565b505050505050565b815167ffffffffffffffff81111561117357611173610e43565b6111878161118184546110d1565b8461110b565b602080601f8311600181146111bc57600084156111a45750858301515b600019600386901b1c1916600185901b178555611151565b600085815260208120601f198616915b828110156111eb578886015182559484019460019091019084016111cc565b50858210156112095787850151600019600388901b60f8161c191681555b5050505050600190811b01905550565b8381526001600160a01b03831660208201526060604082015260006112416060830184610ff4565b95945050505050565b7f5468697320636f6d706c61696e742069732072656a65637465642e2052656173815263037b71d160e51b60208201526000825161128f816024850160208701610fd0565b919091016024019291505056fea2646970667358221220a0db5543f972144c4cd7b19b51f77b37b160c44a68b72cb030a84d11c2cd57e664736f6c63430008110033",
      "opcodes": "PUSH1 0x80 PUSH1 0x40 MSTORE CALLVALUE DUP1 ISZERO PUSH2 0x10 JUMPI PUSH1 0x0 DUP1 REVERT JUMPDEST POP PUSH1 0x40 MLOAD PUSH2 0x1376 CODESIZE SUB DUP1 PUSH2 0x1376 DUP4 CODECOPY DUP2 ADD PUSH1 0x40 DUP2 SWAP1 MSTORE PUSH2 0x2F SWAP2 PUSH2 0x65 JUMP JUMPDEST PUSH1 0x1 DUP1 SLOAD CALLER PUSH1 0x1 PUSH1 0x1 PUSH1 0xA0 SHL SUB NOT SWAP2 DUP3 AND OR DUP3 SSTORE PUSH1 0x0 DUP1 SLOAD SWAP1 SWAP2 AND PUSH1 0x1 PUSH1 0x1 PUSH1 0xA0 SHL SUB SWAP4 SWAP1 SWAP4 AND SWAP3 SWAP1 SWAP3 OR SWAP1 SWAP2 SSTORE PUSH1 0x2 SSTORE PUSH2 0x95 JUMP JUMPDEST PUSH1 0x0 PUSH1 0x20 DUP3 DUP5 SUB SLT ISZERO PUSH2 0x77 JUMPI PUSH1 0x0 DUP1 REVERT JUMPDEST DUP2 MLOAD PUSH1 0x1 PUSH1 0x1 PUSH1 0xA0 SHL SUB DUP2 AND DUP2 EQ PUSH2 0x8E JUMPI PUSH1 0x0 DUP1 REVERT JUMPDEST SWAP4 SWAP3 POP POP POP JUMP JUMPDEST PUSH2 0x12D2 DUP1 PUSH2 0xA4 PUSH1 0x0 CODECOPY PUSH1 0x0 RETURN INVALID PUSH1 0x80 PUSH1 0x40 MSTORE CALLVALUE DUP1 ISZERO PUSH2 0x10 JUMPI PUSH1 0x0 DUP1 REVERT JUMPDEST POP PUSH1 0x4 CALLDATASIZE LT PUSH2 0xF5 JUMPI PUSH1 0x0 CALLDATALOAD PUSH1 0xE0 SHR DUP1 PUSH4 0x6D1727E9 GT PUSH2 0x97 JUMPI DUP1 PUSH4 0xBC685CE0 GT PUSH2 0x66 JUMPI DUP1 PUSH4 0xBC685CE0 EQ PUSH2 0x1ED JUMPI DUP1 PUSH4 0xCC911635 EQ PUSH2 0x200 JUMPI DUP1 PUSH4 0xD2032042 EQ PUSH2 0x208 JUMPI DUP1 PUSH4 0xFECC1021 EQ PUSH2 0x21B JUMPI PUSH1 0x0 DUP1 REVERT JUMPDEST DUP1 PUSH4 0x6D1727E9 EQ PUSH2 0x174 JUMPI DUP1 PUSH4 0x8DA5CB5B EQ PUSH2 0x187 JUMPI DUP1 PUSH4 0x9F2B37B0 EQ PUSH2 0x1B2 JUMPI DUP1 PUSH4 0xB09CC427 EQ PUSH2 0x1DA JUMPI PUSH1 0x0 DUP1 REVERT JUMPDEST DUP1 PUSH4 0x3C5F15E7 GT PUSH2 0xD3 JUMPI DUP1 PUSH4 0x3C5F15E7 EQ PUSH2 0x11F JUMPI DUP1 PUSH4 0x4DE1C8C3 EQ PUSH2 0x132 JUMPI DUP1 PUSH4 0x61B8CE8C EQ PUSH2 0x158 JUMPI DUP1 PUSH4 0x686B656E EQ PUSH2 0x161 JUMPI PUSH1 0x0 DUP1 REVERT JUMPDEST DUP1 PUSH4 0x2071BE7F EQ PUSH2 0xFA JUMPI DUP1 PUSH4 0x26019E7F EQ PUSH2 0x104 JUMPI DUP1 PUSH4 0x346FED10 EQ PUSH2 0x117 JUMPI JUMPDEST PUSH1 0x0 DUP1 REVERT JUMPDEST PUSH2 0x102 PUSH2 0x22E JUMP JUMPDEST STOP JUMPDEST PUSH2 0x102 PUSH2 0x112 CALLDATASIZE PUSH1 0x4 PUSH2 0xEE6 JUMP JUMPDEST PUSH2 0x2C1 JUMP JUMPDEST PUSH2 0x102 PUSH2 0x4B5 JUMP JUMPDEST PUSH2 0x102 PUSH2 0x12D CALLDATASIZE PUSH1 0x4 PUSH2 0xF2D JUMP JUMPDEST PUSH2 0x58E JUMP JUMPDEST PUSH2 0x145 PUSH2 0x140 CALLDATASIZE PUSH1 0x4 PUSH2 0xF5D JUMP JUMPDEST PUSH2 0x63D JUMP JUMPDEST PUSH1 0x40 MLOAD SWAP1 DUP2 MSTORE PUSH1 0x20 ADD JUMPDEST PUSH1 0x40 MLOAD DUP1 SWAP2 SUB SWAP1 RETURN JUMPDEST PUSH2 0x145 PUSH1 0x2 SLOAD DUP2 JUMP JUMPDEST PUSH2 0x145 PUSH2 0x16F CALLDATASIZE PUSH1 0x4 PUSH2 0xF5D JUMP JUMPDEST PUSH2 0x65E JUMP JUMPDEST PUSH2 0x102 PUSH2 0x182 CALLDATASIZE PUSH1 0x4 PUSH2 0xF76 JUMP JUMPDEST PUSH2 0x66E JUMP JUMPDEST PUSH1 0x1 SLOAD PUSH2 0x19A SWAP1 PUSH1 0x1 PUSH1 0x1 PUSH1 0xA0 SHL SUB AND DUP2 JUMP JUMPDEST PUSH1 0x40 MLOAD PUSH1 0x1 PUSH1 0x1 PUSH1 0xA0 SHL SUB SWAP1 SWAP2 AND DUP2 MSTORE PUSH1 0x20 ADD PUSH2 0x14F JUMP JUMPDEST PUSH2 0x1C5 PUSH2 0x1C0 CALLDATASIZE PUSH1 0x4 PUSH2 0xF5D JUMP JUMPDEST PUSH2 0x7B3 JUMP JUMPDEST PUSH1 0x40 MLOAD PUSH2 0x14F SWAP10 SWAP9 SWAP8 SWAP7 SWAP6 SWAP5 SWAP4 SWAP3 SWAP2 SWAP1 PUSH2 0x1020 JUMP JUMPDEST PUSH2 0x102 PUSH2 0x1E8 CALLDATASIZE PUSH1 0x4 PUSH2 0xEE6 JUMP JUMPDEST PUSH2 0xA2E JUMP JUMPDEST PUSH1 0x0 SLOAD PUSH2 0x19A SWAP1 PUSH1 0x1 PUSH1 0x1 PUSH1 0xA0 SHL SUB AND DUP2 JUMP JUMPDEST PUSH2 0x102 PUSH2 0xBD4 JUMP JUMPDEST PUSH2 0x102 PUSH2 0x216 CALLDATASIZE PUSH1 0x4 PUSH2 0xEE6 JUMP JUMPDEST PUSH2 0xC85 JUMP JUMPDEST PUSH2 0x145 PUSH2 0x229 CALLDATASIZE PUSH1 0x4 PUSH2 0xF5D JUMP JUMPDEST PUSH2 0xE01 JUMP JUMPDEST PUSH2 0x23A PUSH1 0x5 PUSH1 0x0 PUSH2 0xE11 JUMP JUMPDEST PUSH1 0x1 JUMPDEST PUSH1 0x2 SLOAD DUP2 LT ISZERO PUSH2 0x2BE JUMPI PUSH1 0x0 DUP2 DUP2 MSTORE PUSH1 0x6 PUSH1 0x20 DUP2 SWAP1 MSTORE PUSH1 0x40 SWAP1 SWAP2 KECCAK256 ADD SLOAD PUSH2 0x100 SWAP1 DIV PUSH1 0xFF AND ISZERO ISZERO PUSH1 0x1 SUB PUSH2 0x2AC JUMPI PUSH1 0x0 DUP2 DUP2 MSTORE PUSH1 0x6 PUSH1 0x20 MSTORE PUSH1 0x40 DUP2 KECCAK256 SLOAD PUSH1 0x5 DUP1 SLOAD PUSH1 0x1 DUP2 ADD DUP3 SSTORE SWAP3 MSTORE PUSH32 0x36B6384B5ECA791C62761152D0C79BB0604C104A5FB6F4EB0703F3154BB3DB0 SWAP1 SWAP2 ADD SSTORE JUMPDEST DUP1 PUSH2 0x2B6 DUP2 PUSH2 0x10AA JUMP JUMPDEST SWAP2 POP POP PUSH2 0x23D JUMP JUMPDEST POP JUMP JUMPDEST PUSH1 0x0 SLOAD PUSH1 0x1 PUSH1 0x1 PUSH1 0xA0 SHL SUB AND CALLER EQ PUSH2 0x346 JUMPI PUSH1 0x40 MLOAD PUSH3 0x461BCD PUSH1 0xE5 SHL DUP2 MSTORE PUSH1 0x20 PUSH1 0x4 DUP3 ADD MSTORE PUSH1 0x35 PUSH1 0x24 DUP3 ADD MSTORE PUSH32 0x596F7520617265206E6F742072656769737465726564206F666669636572206F PUSH1 0x44 DUP3 ADD MSTORE PUSH32 0x66207468697320736D61727420636F6E74726163740000000000000000000000 PUSH1 0x64 DUP3 ADD MSTORE PUSH1 0x84 ADD JUMPDEST PUSH1 0x40 MLOAD DUP1 SWAP2 SUB SWAP1 REVERT JUMPDEST PUSH1 0x0 DUP3 DUP2 MSTORE PUSH1 0x6 PUSH1 0x20 DUP2 SWAP1 MSTORE PUSH1 0x40 SWAP1 SWAP2 KECCAK256 ADD SLOAD PUSH3 0x10000 SWAP1 DIV PUSH1 0xFF AND ISZERO ISZERO PUSH1 0x1 EQ PUSH2 0x3B3 JUMPI PUSH1 0x40 MLOAD PUSH3 0x461BCD PUSH1 0xE5 SHL DUP2 MSTORE PUSH1 0x20 PUSH1 0x4 DUP3 ADD DUP2 SWAP1 MSTORE PUSH1 0x24 DUP3 ADD MSTORE PUSH32 0x5468697320636F6D706C61696E7420696420646F6573206E6F74206578697374 PUSH1 0x44 DUP3 ADD MSTORE PUSH1 0x64 ADD PUSH2 0x33D JUMP JUMPDEST PUSH1 0x0 DUP3 DUP2 MSTORE PUSH1 0x6 PUSH1 0x20 DUP2 SWAP1 MSTORE PUSH1 0x40 SWAP1 SWAP2 KECCAK256 ADD SLOAD PUSH1 0xFF AND ISZERO ISZERO PUSH1 0x1 EQ PUSH2 0x41A JUMPI PUSH1 0x40 MLOAD PUSH3 0x461BCD PUSH1 0xE5 SHL DUP2 MSTORE PUSH1 0x20 PUSH1 0x4 DUP3 ADD MSTORE PUSH1 0x1D PUSH1 0x24 DUP3 ADD MSTORE PUSH32 0x436F6D706C61696E74206973206E6F742079657420617070726F766564000000 PUSH1 0x44 DUP3 ADD MSTORE PUSH1 0x64 ADD PUSH2 0x33D JUMP JUMPDEST PUSH1 0x0 DUP3 DUP2 MSTORE PUSH1 0x6 PUSH1 0x20 DUP2 SWAP1 MSTORE PUSH1 0x40 SWAP1 SWAP2 KECCAK256 ADD SLOAD PUSH2 0x100 SWAP1 DIV PUSH1 0xFF AND ISZERO PUSH2 0x482 JUMPI PUSH1 0x40 MLOAD PUSH3 0x461BCD PUSH1 0xE5 SHL DUP2 MSTORE PUSH1 0x20 PUSH1 0x4 DUP3 ADD MSTORE PUSH1 0x1D PUSH1 0x24 DUP3 ADD MSTORE PUSH32 0x436F6D706C61696E7420697320616C7265616479207265736F6C766564000000 PUSH1 0x44 DUP3 ADD MSTORE PUSH1 0x64 ADD PUSH2 0x33D JUMP JUMPDEST PUSH1 0x0 DUP3 DUP2 MSTORE PUSH1 0x6 PUSH1 0x20 DUP2 SWAP1 MSTORE PUSH1 0x40 SWAP1 SWAP2 KECCAK256 SWAP1 DUP2 ADD DUP1 SLOAD PUSH2 0xFF00 NOT AND PUSH2 0x100 OR SWAP1 SSTORE PUSH1 0x5 ADD PUSH2 0x4B0 DUP3 DUP3 PUSH2 0x1159 JUMP JUMPDEST POP POP POP JUMP JUMPDEST PUSH2 0x4C1 PUSH1 0x4 PUSH1 0x0 PUSH2 0xE11 JUMP JUMPDEST PUSH1 0x1 JUMPDEST PUSH1 0x2 SLOAD DUP2 LT ISZERO PUSH2 0x2BE JUMPI PUSH1 0x0 DUP2 DUP2 MSTORE PUSH1 0x6 PUSH1 0x20 DUP2 SWAP1 MSTORE PUSH1 0x40 SWAP1 SWAP2 KECCAK256 ADD SLOAD PUSH2 0x100 SWAP1 DIV PUSH1 0xFF AND ISZERO DUP1 ISZERO PUSH2 0x50D JUMPI POP PUSH1 0x0 DUP2 DUP2 MSTORE PUSH1 0x6 PUSH1 0x20 DUP2 SWAP1 MSTORE PUSH1 0x40 SWAP1 SWAP2 KECCAK256 ADD SLOAD PUSH1 0xFF AND ISZERO ISZERO PUSH1 0x1 EQ JUMPDEST DUP1 ISZERO PUSH2 0x536 JUMPI POP PUSH1 0x0 DUP2 DUP2 MSTORE PUSH1 0x6 PUSH1 0x20 DUP2 SWAP1 MSTORE PUSH1 0x40 SWAP1 SWAP2 KECCAK256 ADD SLOAD PUSH3 0x10000 SWAP1 DIV PUSH1 0xFF AND ISZERO ISZERO PUSH1 0x1 EQ JUMPDEST ISZERO PUSH2 0x57C JUMPI PUSH1 0x0 DUP2 DUP2 MSTORE PUSH1 0x6 PUSH1 0x20 MSTORE PUSH1 0x40 DUP2 KECCAK256 SLOAD PUSH1 0x4 DUP1 SLOAD PUSH1 0x1 DUP2 ADD DUP3 SSTORE SWAP3 MSTORE PUSH32 0x8A35ACFBC15FF81A39AE7D344FD709F28E8600B4AA8C65C6B64BFE7FE36BD19B SWAP1 SWAP2 ADD SSTORE JUMPDEST DUP1 PUSH2 0x586 DUP2 PUSH2 0x10AA JUMP JUMPDEST SWAP2 POP POP PUSH2 0x4C4 JUMP JUMPDEST PUSH1 0x1 SLOAD PUSH1 0x1 PUSH1 0x1 PUSH1 0xA0 SHL SUB AND CALLER EQ PUSH2 0x60E JUMPI PUSH1 0x40 MLOAD PUSH3 0x461BCD PUSH1 0xE5 SHL DUP2 MSTORE PUSH1 0x20 PUSH1 0x4 DUP3 ADD MSTORE PUSH1 0x2C PUSH1 0x24 DUP3 ADD MSTORE PUSH32 0x596F7520617265206E6F7420746865206F776E6572206F66207468697320736D PUSH1 0x44 DUP3 ADD MSTORE PUSH32 0x61727420636F6E74726163740000000000000000000000000000000000000000 PUSH1 0x64 DUP3 ADD MSTORE PUSH1 0x84 ADD PUSH2 0x33D JUMP JUMPDEST PUSH1 0x0 DUP1 SLOAD PUSH20 0xFFFFFFFFFFFFFFFFFFFFFFFFFFFFFFFFFFFFFFFF NOT AND PUSH1 0x1 PUSH1 0x1 PUSH1 0xA0 SHL SUB SWAP3 SWAP1 SWAP3 AND SWAP2 SWAP1 SWAP2 OR SWAP1 SSTORE JUMP JUMPDEST PUSH1 0x5 DUP2 DUP2 SLOAD DUP2 LT PUSH2 0x64D JUMPI PUSH1 0x0 DUP1 REVERT JUMPDEST PUSH1 0x0 SWAP2 DUP3 MSTORE PUSH1 0x20 SWAP1 SWAP2 KECCAK256 ADD SLOAD SWAP1 POP DUP2 JUMP JUMPDEST PUSH1 0x3 DUP2 DUP2 SLOAD DUP2 LT PUSH2 0x64D JUMPI PUSH1 0x0 DUP1 REVERT JUMPDEST PUSH1 0x2 DUP1 SLOAD PUSH1 0x0 DUP2 DUP2 MSTORE PUSH1 0x6 PUSH1 0x20 MSTORE PUSH1 0x40 SWAP1 KECCAK256 SWAP1 DUP2 SSTORE PUSH1 0x1 DUP2 ADD DUP1 SLOAD PUSH20 0xFFFFFFFFFFFFFFFFFFFFFFFFFFFFFFFFFFFFFFFF NOT AND CALLER OR SWAP1 SSTORE SWAP1 DUP2 ADD PUSH2 0x6B1 DUP5 DUP3 PUSH2 0x1159 JUMP JUMPDEST POP PUSH1 0x3 DUP2 ADD PUSH2 0x6C0 DUP4 DUP3 PUSH2 0x1159 JUMP JUMPDEST POP PUSH1 0x40 DUP1 MLOAD DUP1 DUP3 ADD SWAP1 SWAP2 MSTORE PUSH1 0x10 DUP2 MSTORE PUSH32 0x50656E64696E6720417070726F76616C00000000000000000000000000000000 PUSH1 0x20 DUP3 ADD MSTORE PUSH1 0x4 DUP3 ADD SWAP1 PUSH2 0x704 SWAP1 DUP3 PUSH2 0x1159 JUMP JUMPDEST POP PUSH1 0x40 DUP1 MLOAD DUP1 DUP3 ADD SWAP1 SWAP2 MSTORE PUSH1 0x12 DUP2 MSTORE PUSH32 0x50656E64696E67205265736F6C7574696F6E0000000000000000000000000000 PUSH1 0x20 DUP3 ADD MSTORE PUSH1 0x5 DUP3 ADD SWAP1 PUSH2 0x748 SWAP1 DUP3 PUSH2 0x1159 JUMP JUMPDEST POP PUSH1 0x6 DUP2 ADD DUP1 SLOAD PUSH3 0xFFFFFF NOT AND PUSH3 0x10000 OR SWAP1 SSTORE PUSH1 0x2 SLOAD PUSH1 0x40 MLOAD PUSH32 0xDEB4E2A7C73777ECDE924D94281FA19EFD33DA9FF6F4E0C7EDE16FA01FA3051D SWAP2 PUSH2 0x791 SWAP2 CALLER SWAP1 DUP8 SWAP1 PUSH2 0x1219 JUMP JUMPDEST PUSH1 0x40 MLOAD DUP1 SWAP2 SUB SWAP1 LOG1 PUSH1 0x2 DUP1 SLOAD SWAP1 PUSH1 0x0 PUSH2 0x7A9 DUP4 PUSH2 0x10AA JUMP JUMPDEST SWAP2 SWAP1 POP SSTORE POP POP POP POP JUMP JUMPDEST PUSH1 0x6 PUSH1 0x20 MSTORE PUSH1 0x0 SWAP1 DUP2 MSTORE PUSH1 0x40 SWAP1 KECCAK256 DUP1 SLOAD PUSH1 0x1 DUP3 ADD SLOAD PUSH1 0x2 DUP4 ADD DUP1 SLOAD SWAP3 SWAP4 PUSH1 0x1 PUSH1 0x1 PUSH1 0xA0 SHL SUB SWAP1 SWAP3 AND SWAP3 PUSH2 0x7E5 SWAP1 PUSH2 0x10D1 JUMP JUMPDEST DUP1 PUSH1 0x1F ADD PUSH1 0x20 DUP1 SWAP2 DIV MUL PUSH1 0x20 ADD PUSH1 0x40 MLOAD SWAP1 DUP2 ADD PUSH1 0x40 MSTORE DUP1 SWAP3 SWAP2 SWAP1 DUP2 DUP2 MSTORE PUSH1 0x20 ADD DUP3 DUP1 SLOAD PUSH2 0x811 SWAP1 PUSH2 0x10D1 JUMP JUMPDEST DUP1 ISZERO PUSH2 0x85E JUMPI DUP1 PUSH1 0x1F LT PUSH2 0x833 JUMPI PUSH2 0x100 DUP1 DUP4 SLOAD DIV MUL DUP4 MSTORE SWAP2 PUSH1 0x20 ADD SWAP2 PUSH2 0x85E JUMP JUMPDEST DUP3 ADD SWAP2 SWAP1 PUSH1 0x0 MSTORE PUSH1 0x20 PUSH1 0x0 KECCAK256 SWAP1 JUMPDEST DUP2 SLOAD DUP2 MSTORE SWAP1 PUSH1 0x1 ADD SWAP1 PUSH1 0x20 ADD DUP1 DUP4 GT PUSH2 0x841 JUMPI DUP3 SWAP1 SUB PUSH1 0x1F AND DUP3 ADD SWAP2 JUMPDEST POP POP POP POP POP SWAP1 DUP1 PUSH1 0x3 ADD DUP1 SLOAD PUSH2 0x873 SWAP1 PUSH2 0x10D1 JUMP JUMPDEST DUP1 PUSH1 0x1F ADD PUSH1 0x20 DUP1 SWAP2 DIV MUL PUSH1 0x20 ADD PUSH1 0x40 MLOAD SWAP1 DUP2 ADD PUSH1 0x40 MSTORE DUP1 SWAP3 SWAP2 SWAP1 DUP2 DUP2 MSTORE PUSH1 0x20 ADD DUP3 DUP1 SLOAD PUSH2 0x89F SWAP1 PUSH2 0x10D1 JUMP JUMPDEST DUP1 ISZERO PUSH2 0x8EC JUMPI DUP1 PUSH1 0x1F LT PUSH2 0x8C1 JUMPI PUSH2 0x100 DUP1 DUP4 SLOAD DIV MUL DUP4 MSTORE SWAP2 PUSH1 0x20 ADD SWAP2 PUSH2 0x8EC JUMP JUMPDEST DUP3 ADD SWAP2 SWAP1 PUSH1 0x0 MSTORE PUSH1 0x20 PUSH1 0x0 KECCAK256 SWAP1 JUMPDEST DUP2 SLOAD DUP2 MSTORE SWAP1 PUSH1 0x1 ADD SWAP1 PUSH1 0x20 ADD DUP1 DUP4 GT PUSH2 0x8CF JUMPI DUP3 SWAP1 SUB PUSH1 0x1F AND DUP3 ADD SWAP2 JUMPDEST POP POP POP POP POP SWAP1 DUP1 PUSH1 0x4 ADD DUP1 SLOAD PUSH2 0x901 SWAP1 PUSH2 0x10D1 JUMP JUMPDEST DUP1 PUSH1 0x1F ADD PUSH1 0x20 DUP1 SWAP2 DIV MUL PUSH1 0x20 ADD PUSH1 0x40 MLOAD SWAP1 DUP2 ADD PUSH1 0x40 MSTORE DUP1 SWAP3 SWAP2 SWAP1 DUP2 DUP2 MSTORE PUSH1 0x20 ADD DUP3 DUP1 SLOAD PUSH2 0x92D SWAP1 PUSH2 0x10D1 JUMP JUMPDEST DUP1 ISZERO PUSH2 0x97A JUMPI DUP1 PUSH1 0x1F LT PUSH2 0x94F JUMPI PUSH2 0x100 DUP1 DUP4 SLOAD DIV MUL DUP4 MSTORE SWAP2 PUSH1 0x20 ADD SWAP2 PUSH2 0x97A JUMP JUMPDEST DUP3 ADD SWAP2 SWAP1 PUSH1 0x0 MSTORE PUSH1 0x20 PUSH1 0x0 KECCAK256 SWAP1 JUMPDEST DUP2 SLOAD DUP2 MSTORE SWAP1 PUSH1 0x1 ADD SWAP1 PUSH1 0x20 ADD DUP1 DUP4 GT PUSH2 0x95D JUMPI DUP3 SWAP1 SUB PUSH1 0x1F AND DUP3 ADD SWAP2 JUMPDEST POP POP POP POP POP SWAP1 DUP1 PUSH1 0x5 ADD DUP1 SLOAD PUSH2 0x98F SWAP1 PUSH2 0x10D1 JUMP JUMPDEST DUP1 PUSH1 0x1F ADD PUSH1 0x20 DUP1 SWAP2 DIV MUL PUSH1 0x20 ADD PUSH1 0x40 MLOAD SWAP1 DUP2 ADD PUSH1 0x40 MSTORE DUP1 SWAP3 SWAP2 SWAP1 DUP2 DUP2 MSTORE PUSH1 0x20 ADD DUP3 DUP1 SLOAD PUSH2 0x9BB SWAP1 PUSH2 0x10D1 JUMP JUMPDEST DUP1 ISZERO PUSH2 0xA08 JUMPI DUP1 PUSH1 0x1F LT PUSH2 0x9DD JUMPI PUSH2 0x100 DUP1 DUP4 SLOAD DIV MUL DUP4 MSTORE SWAP2 PUSH1 0x20 ADD SWAP2 PUSH2 0xA08 JUMP JUMPDEST DUP3 ADD SWAP2 SWAP1 PUSH1 0x0 MSTORE PUSH1 0x20 PUSH1 0x0 KECCAK256 SWAP1 JUMPDEST DUP2 SLOAD DUP2 MSTORE SWAP1 PUSH1 0x1 ADD SWAP1 PUSH1 0x20 ADD DUP1 DUP4 GT PUSH2 0x9EB JUMPI DUP3 SWAP1 SUB PUSH1 0x1F AND DUP3 ADD SWAP2 JUMPDEST POP POP POP PUSH1 0x6 SWAP1 SWAP4 ADD SLOAD SWAP2 SWAP3 POP POP PUSH1 0xFF DUP1 DUP3 AND SWAP2 PUSH2 0x100 DUP2 DIV DUP3 AND SWAP2 PUSH3 0x10000 SWAP1 SWAP2 DIV AND DUP10 JUMP JUMPDEST PUSH1 0x0 SLOAD PUSH1 0x1 PUSH1 0x1 PUSH1 0xA0 SHL SUB AND CALLER EQ PUSH2 0xAAE JUMPI PUSH1 0x40 MLOAD PUSH3 0x461BCD PUSH1 0xE5 SHL DUP2 MSTORE PUSH1 0x20 PUSH1 0x4 DUP3 ADD MSTORE PUSH1 0x35 PUSH1 0x24 DUP3 ADD MSTORE PUSH32 0x596F7520617265206E6F742072656769737465726564206F666669636572206F PUSH1 0x44 DUP3 ADD MSTORE PUSH32 0x66207468697320736D61727420636F6E74726163740000000000000000000000 PUSH1 0x64 DUP3 ADD MSTORE PUSH1 0x84 ADD PUSH2 0x33D JUMP JUMPDEST PUSH1 0x0 DUP3 DUP2 MSTORE PUSH1 0x6 PUSH1 0x20 DUP2 SWAP1 MSTORE PUSH1 0x40 SWAP1 SWAP2 KECCAK256 ADD SLOAD PUSH3 0x10000 SWAP1 DIV PUSH1 0xFF AND ISZERO ISZERO PUSH1 0x1 EQ PUSH2 0xB1B JUMPI PUSH1 0x40 MLOAD PUSH3 0x461BCD PUSH1 0xE5 SHL DUP2 MSTORE PUSH1 0x20 PUSH1 0x4 DUP3 ADD DUP2 SWAP1 MSTORE PUSH1 0x24 DUP3 ADD MSTORE PUSH32 0x5468697320636F6D706C61696E7420696420646F6573206E6F74206578697374 PUSH1 0x44 DUP3 ADD MSTORE PUSH1 0x64 ADD PUSH2 0x33D JUMP JUMPDEST PUSH1 0x0 DUP3 DUP2 MSTORE PUSH1 0x6 PUSH1 0x20 DUP2 SWAP1 MSTORE PUSH1 0x40 SWAP1 SWAP2 KECCAK256 ADD SLOAD PUSH1 0xFF AND ISZERO PUSH2 0xB7E JUMPI PUSH1 0x40 MLOAD PUSH3 0x461BCD PUSH1 0xE5 SHL DUP2 MSTORE PUSH1 0x20 PUSH1 0x4 DUP3 ADD MSTORE PUSH1 0x1D PUSH1 0x24 DUP3 ADD MSTORE PUSH32 0x436F6D706C61696E7420697320616C726561647920617070726F766564000000 PUSH1 0x44 DUP3 ADD MSTORE PUSH1 0x64 ADD PUSH2 0x33D JUMP JUMPDEST PUSH1 0x0 DUP3 DUP2 MSTORE PUSH1 0x6 PUSH1 0x20 DUP2 DUP2 MSTORE PUSH1 0x40 SWAP3 DUP4 SWAP1 KECCAK256 SWAP1 SWAP2 ADD DUP1 SLOAD PUSH3 0xFF0000 NOT AND SWAP1 SSTORE SWAP1 MLOAD PUSH2 0xBAB SWAP2 DUP4 SWAP2 ADD PUSH2 0x124A JUMP JUMPDEST PUSH1 0x40 DUP1 MLOAD PUSH1 0x1F NOT DUP2 DUP5 SUB ADD DUP2 MSTORE SWAP2 DUP2 MSTORE PUSH1 0x0 DUP5 DUP2 MSTORE PUSH1 0x6 PUSH1 0x20 MSTORE KECCAK256 PUSH1 0x4 ADD SWAP1 PUSH2 0x4B0 SWAP1 DUP3 PUSH2 0x1159 JUMP JUMPDEST PUSH2 0xBE0 PUSH1 0x3 PUSH1 0x0 PUSH2 0xE11 JUMP JUMPDEST PUSH1 0x1 JUMPDEST PUSH1 0x2 SLOAD DUP2 LT ISZERO PUSH2 0x2BE JUMPI PUSH1 0x0 DUP2 DUP2 MSTORE PUSH1 0x6 PUSH1 0x20 DUP2 SWAP1 MSTORE PUSH1 0x40 SWAP1 SWAP2 KECCAK256 ADD SLOAD PUSH1 0xFF AND ISZERO DUP1 ISZERO PUSH2 0xC2D JUMPI POP PUSH1 0x0 DUP2 DUP2 MSTORE PUSH1 0x6 PUSH1 0x20 DUP2 SWAP1 MSTORE PUSH1 0x40 SWAP1 SWAP2 KECCAK256 ADD SLOAD PUSH3 0x10000 SWAP1 DIV PUSH1 0xFF AND ISZERO ISZERO PUSH1 0x1 EQ JUMPDEST ISZERO PUSH2 0xC73 JUMPI PUSH1 0x0 DUP2 DUP2 MSTORE PUSH1 0x6 PUSH1 0x20 MSTORE PUSH1 0x40 DUP2 KECCAK256 SLOAD PUSH1 0x3 DUP1 SLOAD PUSH1 0x1 DUP2 ADD DUP3 SSTORE SWAP3 MSTORE PUSH32 0xC2575A0E9E593C00F959F8C92F12DB2869C3395A3B0502D05E2516446F71F85B SWAP1 SWAP2 ADD SSTORE JUMPDEST DUP1 PUSH2 0xC7D DUP2 PUSH2 0x10AA JUMP JUMPDEST SWAP2 POP POP PUSH2 0xBE3 JUMP JUMPDEST PUSH1 0x0 SLOAD PUSH1 0x1 PUSH1 0x1 PUSH1 0xA0 SHL SUB AND CALLER EQ PUSH2 0xD05 JUMPI PUSH1 0x40 MLOAD PUSH3 0x461BCD PUSH1 0xE5 SHL DUP2 MSTORE PUSH1 0x20 PUSH1 0x4 DUP3 ADD MSTORE PUSH1 0x35 PUSH1 0x24 DUP3 ADD MSTORE PUSH32 0x596F7520617265206E6F742072656769737465726564206F666669636572206F PUSH1 0x44 DUP3 ADD MSTORE PUSH32 0x66207468697320736D61727420636F6E74726163740000000000000000000000 PUSH1 0x64 DUP3 ADD MSTORE PUSH1 0x84 ADD PUSH2 0x33D JUMP JUMPDEST PUSH1 0x0 DUP3 DUP2 MSTORE PUSH1 0x6 PUSH1 0x20 DUP2 SWAP1 MSTORE PUSH1 0x40 SWAP1 SWAP2 KECCAK256 ADD SLOAD PUSH3 0x10000 SWAP1 DIV PUSH1 0xFF AND ISZERO ISZERO PUSH1 0x1 EQ PUSH2 0xD72 JUMPI PUSH1 0x40 MLOAD PUSH3 0x461BCD PUSH1 0xE5 SHL DUP2 MSTORE PUSH1 0x20 PUSH1 0x4 DUP3 ADD DUP2 SWAP1 MSTORE PUSH1 0x24 DUP3 ADD MSTORE PUSH32 0x5468697320636F6D706C61696E7420696420646F6573206E6F74206578697374 PUSH1 0x44 DUP3 ADD MSTORE PUSH1 0x64 ADD PUSH2 0x33D JUMP JUMPDEST PUSH1 0x0 DUP3 DUP2 MSTORE PUSH1 0x6 PUSH1 0x20 DUP2 SWAP1 MSTORE PUSH1 0x40 SWAP1 SWAP2 KECCAK256 ADD SLOAD PUSH1 0xFF AND ISZERO PUSH2 0xDD5 JUMPI PUSH1 0x40 MLOAD PUSH3 0x461BCD PUSH1 0xE5 SHL DUP2 MSTORE PUSH1 0x20 PUSH1 0x4 DUP3 ADD MSTORE PUSH1 0x1D PUSH1 0x24 DUP3 ADD MSTORE PUSH32 0x436F6D706C61696E7420697320616C726561647920617070726F766564000000 PUSH1 0x44 DUP3 ADD MSTORE PUSH1 0x64 ADD PUSH2 0x33D JUMP JUMPDEST PUSH1 0x0 DUP3 DUP2 MSTORE PUSH1 0x6 PUSH1 0x20 DUP2 SWAP1 MSTORE PUSH1 0x40 SWAP1 SWAP2 KECCAK256 SWAP1 DUP2 ADD DUP1 SLOAD PUSH1 0xFF NOT AND PUSH1 0x1 OR SWAP1 SSTORE PUSH1 0x4 ADD PUSH2 0x4B0 DUP3 DUP3 PUSH2 0x1159 JUMP JUMPDEST PUSH1 0x4 DUP2 DUP2 SLOAD DUP2 LT PUSH2 0x64D JUMPI PUSH1 0x0 DUP1 REVERT JUMPDEST POP DUP1 SLOAD PUSH1 0x0 DUP3 SSTORE SWAP1 PUSH1 0x0 MSTORE PUSH1 0x20 PUSH1 0x0 KECCAK256 SWAP1 DUP2 ADD SWAP1 PUSH2 0x2BE SWAP2 SWAP1 JUMPDEST DUP1 DUP3 GT ISZERO PUSH2 0xE3F JUMPI PUSH1 0x0 DUP2 SSTORE PUSH1 0x1 ADD PUSH2 0xE2B JUMP JUMPDEST POP SWAP1 JUMP JUMPDEST PUSH4 0x4E487B71 PUSH1 0xE0 SHL PUSH1 0x0 MSTORE PUSH1 0x41 PUSH1 0x4 MSTORE PUSH1 0x24 PUSH1 0x0 REVERT JUMPDEST PUSH1 0x0 DUP3 PUSH1 0x1F DUP4 ADD SLT PUSH2 0xE6A JUMPI PUSH1 0x0 DUP1 REVERT JUMPDEST DUP2 CALLDATALOAD PUSH8 0xFFFFFFFFFFFFFFFF DUP1 DUP3 GT ISZERO PUSH2 0xE85 JUMPI PUSH2 0xE85 PUSH2 0xE43 JUMP JUMPDEST PUSH1 0x40 MLOAD PUSH1 0x1F DUP4 ADD PUSH1 0x1F NOT SWAP1 DUP2 AND PUSH1 0x3F ADD AND DUP2 ADD SWAP1 DUP3 DUP3 GT DUP2 DUP4 LT OR ISZERO PUSH2 0xEAD JUMPI PUSH2 0xEAD PUSH2 0xE43 JUMP JUMPDEST DUP2 PUSH1 0x40 MSTORE DUP4 DUP2 MSTORE DUP7 PUSH1 0x20 DUP6 DUP9 ADD ADD GT ISZERO PUSH2 0xEC6 JUMPI PUSH1 0x0 DUP1 REVERT JUMPDEST DUP4 PUSH1 0x20 DUP8 ADD PUSH1 0x20 DUP4 ADD CALLDATACOPY PUSH1 0x0 PUSH1 0x20 DUP6 DUP4 ADD ADD MSTORE DUP1 SWAP5 POP POP POP POP POP SWAP3 SWAP2 POP POP JUMP JUMPDEST PUSH1 0x0 DUP1 PUSH1 0x40 DUP4 DUP6 SUB SLT ISZERO PUSH2 0xEF9 JUMPI PUSH1 0x0 DUP1 REVERT JUMPDEST DUP3 CALLDATALOAD SWAP2 POP PUSH1 0x20 DUP4 ADD CALLDATALOAD PUSH8 0xFFFFFFFFFFFFFFFF DUP2 GT ISZERO PUSH2 0xF17 JUMPI PUSH1 0x0 DUP1 REVERT JUMPDEST PUSH2 0xF23 DUP6 DUP3 DUP7 ADD PUSH2 0xE59 JUMP JUMPDEST SWAP2 POP POP SWAP3 POP SWAP3 SWAP1 POP JUMP JUMPDEST PUSH1 0x0 PUSH1 0x20 DUP3 DUP5 SUB SLT ISZERO PUSH2 0xF3F JUMPI PUSH1 0x0 DUP1 REVERT JUMPDEST DUP2 CALLDATALOAD PUSH1 0x1 PUSH1 0x1 PUSH1 0xA0 SHL SUB DUP2 AND DUP2 EQ PUSH2 0xF56 JUMPI PUSH1 0x0 DUP1 REVERT JUMPDEST SWAP4 SWAP3 POP POP POP JUMP JUMPDEST PUSH1 0x0 PUSH1 0x20 DUP3 DUP5 SUB SLT ISZERO PUSH2 0xF6F JUMPI PUSH1 0x0 DUP1 REVERT JUMPDEST POP CALLDATALOAD SWAP2 SWAP1 POP JUMP JUMPDEST PUSH1 0x0 DUP1 PUSH1 0x40 DUP4 DUP6 SUB SLT ISZERO PUSH2 0xF89 JUMPI PUSH1 0x0 DUP1 REVERT JUMPDEST DUP3 CALLDATALOAD PUSH8 0xFFFFFFFFFFFFFFFF DUP1 DUP3 GT ISZERO PUSH2 0xFA1 JUMPI PUSH1 0x0 DUP1 REVERT JUMPDEST PUSH2 0xFAD DUP7 DUP4 DUP8 ADD PUSH2 0xE59 JUMP JUMPDEST SWAP4 POP PUSH1 0x20 DUP6 ADD CALLDATALOAD SWAP2 POP DUP1 DUP3 GT ISZERO PUSH2 0xFC3 JUMPI PUSH1 0x0 DUP1 REVERT JUMPDEST POP PUSH2 0xF23 DUP6 DUP3 DUP7 ADD PUSH2 0xE59 JUMP JUMPDEST PUSH1 0x0 JUMPDEST DUP4 DUP2 LT ISZERO PUSH2 0xFEB JUMPI DUP2 DUP2 ADD MLOAD DUP4 DUP3 ADD MSTORE PUSH1 0x20 ADD PUSH2 0xFD3 JUMP JUMPDEST POP POP PUSH1 0x0 SWAP2 ADD MSTORE JUMP JUMPDEST PUSH1 0x0 DUP2 MLOAD DUP1 DUP5 MSTORE PUSH2 0x100C DUP2 PUSH1 0x20 DUP7 ADD PUSH1 0x20 DUP7 ADD PUSH2 0xFD0 JUMP JUMPDEST PUSH1 0x1F ADD PUSH1 0x1F NOT AND SWAP3 SWAP1 SWAP3 ADD PUSH1 0x20 ADD SWAP3 SWAP2 POP POP JUMP JUMPDEST PUSH1 0x0 PUSH2 0x120 DUP12 DUP4 MSTORE PUSH1 0x1 PUSH1 0x1 PUSH1 0xA0 SHL SUB DUP12 AND PUSH1 0x20 DUP5 ADD MSTORE DUP1 PUSH1 0x40 DUP5 ADD MSTORE PUSH2 0x1049 DUP2 DUP5 ADD DUP12 PUSH2 0xFF4 JUMP JUMPDEST SWAP1 POP DUP3 DUP2 SUB PUSH1 0x60 DUP5 ADD MSTORE PUSH2 0x105D DUP2 DUP11 PUSH2 0xFF4 JUMP JUMPDEST SWAP1 POP DUP3 DUP2 SUB PUSH1 0x80 DUP5 ADD MSTORE PUSH2 0x1071 DUP2 DUP10 PUSH2 0xFF4 JUMP JUMPDEST SWAP1 POP DUP3 DUP2 SUB PUSH1 0xA0 DUP5 ADD MSTORE PUSH2 0x1085 DUP2 DUP9 PUSH2 0xFF4 JUMP JUMPDEST SWAP6 ISZERO ISZERO PUSH1 0xC0 DUP5 ADD MSTORE POP POP SWAP2 ISZERO ISZERO PUSH1 0xE0 DUP4 ADD MSTORE ISZERO ISZERO PUSH2 0x100 SWAP1 SWAP2 ADD MSTORE SWAP7 SWAP6 POP POP POP POP POP POP JUMP JUMPDEST PUSH1 0x0 PUSH1 0x1 DUP3 ADD PUSH2 0x10CA JUMPI PUSH4 0x4E487B71 PUSH1 0xE0 SHL PUSH1 0x0 MSTORE PUSH1 0x11 PUSH1 0x4 MSTORE PUSH1 0x24 PUSH1 0x0 REVERT JUMPDEST POP PUSH1 0x1 ADD SWAP1 JUMP JUMPDEST PUSH1 0x1 DUP2 DUP2 SHR SWAP1 DUP3 AND DUP1 PUSH2 0x10E5 JUMPI PUSH1 0x7F DUP3 AND SWAP2 POP JUMPDEST PUSH1 0x20 DUP3 LT DUP2 SUB PUSH2 0x1105 JUMPI PUSH4 0x4E487B71 PUSH1 0xE0 SHL PUSH1 0x0 MSTORE PUSH1 0x22 PUSH1 0x4 MSTORE PUSH1 0x24 PUSH1 0x0 REVERT JUMPDEST POP SWAP2 SWAP1 POP JUMP JUMPDEST PUSH1 0x1F DUP3 GT ISZERO PUSH2 0x4B0 JUMPI PUSH1 0x0 DUP2 DUP2 MSTORE PUSH1 0x20 DUP2 KECCAK256 PUSH1 0x1F DUP6 ADD PUSH1 0x5 SHR DUP2 ADD PUSH1 0x20 DUP7 LT ISZERO PUSH2 0x1132 JUMPI POP DUP1 JUMPDEST PUSH1 0x1F DUP6 ADD PUSH1 0x5 SHR DUP3 ADD SWAP2 POP JUMPDEST DUP2 DUP2 LT ISZERO PUSH2 0x1151 JUMPI DUP3 DUP2 SSTORE PUSH1 0x1 ADD PUSH2 0x113E JUMP JUMPDEST POP POP POP POP POP POP JUMP JUMPDEST DUP2 MLOAD PUSH8 0xFFFFFFFFFFFFFFFF DUP2 GT ISZERO PUSH2 0x1173 JUMPI PUSH2 0x1173 PUSH2 0xE43 JUMP JUMPDEST PUSH2 0x1187 DUP2 PUSH2 0x1181 DUP5 SLOAD PUSH2 0x10D1 JUMP JUMPDEST DUP5 PUSH2 0x110B JUMP JUMPDEST PUSH1 0x20 DUP1 PUSH1 0x1F DUP4 GT PUSH1 0x1 DUP2 EQ PUSH2 0x11BC JUMPI PUSH1 0x0 DUP5 ISZERO PUSH2 0x11A4 JUMPI POP DUP6 DUP4 ADD MLOAD JUMPDEST PUSH1 0x0 NOT PUSH1 0x3 DUP7 SWAP1 SHL SHR NOT AND PUSH1 0x1 DUP6 SWAP1 SHL OR DUP6 SSTORE PUSH2 0x1151 JUMP JUMPDEST PUSH1 0x0 DUP6 DUP2 MSTORE PUSH1 0x20 DUP2 KECCAK256 PUSH1 0x1F NOT DUP7 AND SWAP2 JUMPDEST DUP3 DUP2 LT ISZERO PUSH2 0x11EB JUMPI DUP9 DUP7 ADD MLOAD DUP3 SSTORE SWAP5 DUP5 ADD SWAP5 PUSH1 0x1 SWAP1 SWAP2 ADD SWAP1 DUP5 ADD PUSH2 0x11CC JUMP JUMPDEST POP DUP6 DUP3 LT ISZERO PUSH2 0x1209 JUMPI DUP8 DUP6 ADD MLOAD PUSH1 0x0 NOT PUSH1 0x3 DUP9 SWAP1 SHL PUSH1 0xF8 AND SHR NOT AND DUP2 SSTORE JUMPDEST POP POP POP POP POP PUSH1 0x1 SWAP1 DUP2 SHL ADD SWAP1 SSTORE POP JUMP JUMPDEST DUP4 DUP2 MSTORE PUSH1 0x1 PUSH1 0x1 PUSH1 0xA0 SHL SUB DUP4 AND PUSH1 0x20 DUP3 ADD MSTORE PUSH1 0x60 PUSH1 0x40 DUP3 ADD MSTORE PUSH1 0x0 PUSH2 0x1241 PUSH1 0x60 DUP4 ADD DUP5 PUSH2 0xFF4 JUMP JUMPDEST SWAP6 SWAP5 POP POP POP POP POP JUMP JUMPDEST PUSH32 0x5468697320636F6D706C61696E742069732072656A65637465642E2052656173 DUP2 MSTORE PUSH4 0x37B71D1 PUSH1 0xE5 SHL PUSH1 0x20 DUP3 ADD MSTORE PUSH1 0x0 DUP3 MLOAD PUSH2 0x128F DUP2 PUSH1 0x24 DUP6 ADD PUSH1 0x20 DUP8 ADD PUSH2 0xFD0 JUMP JUMPDEST SWAP2 SWAP1 SWAP2 ADD PUSH1 0x24 ADD SWAP3 SWAP2 POP POP JUMP INVALID LOG2 PUSH5 0x6970667358 0x22 SLT KECCAK256 LOG0 0xDB SSTORE NUMBER 0xF9 PUSH19 0x144C4CD7B19B51F77B37B160C44A68B72CB030 0xA8 0x4D GT 0xC2 0xCD JUMPI 0xE6 PUSH5 0x736F6C6343 STOP ADDMOD GT STOP CALLER "
    },
    "gasEstimates": {
      "creation": {
        "codeDepositCost": "963600",
        "executionCost": "infinite",
        "totalCost": "infinite"
      },
      "external": {
        "Complaints(uint256)": "infinite",
        "approveComplaint(uint256,string)": "infinite",
        "calcPendingApprovalIds()": "infinite",
        "calcPendingResolutionIds()": "infinite",
        "calcResolvedIds()": "infinite",
        "discardComplaint(uint256,string)": "infinite",
        "fileComplaint(string,string)": "infinite",
        "nextId()": "2351",
        "officer()": "2359",
        "owner()": "2382",
        "pendingApprovals(uint256)": "4653",
        "pendingResolutions(uint256)": "4652",
        "resolveComplaint(uint256,string)": "infinite",
        "resolvedCases(uint256)": "4609",
        "setOfficerAddress(address)": "26687"
      }
    },
    "methodIdentifiers": {
      "Complaints(uint256)": "9f2b37b0",
      "approveComplaint(uint256,string)": "d2032042",
      "calcPendingApprovalIds()": "cc911635",
      "calcPendingResolutionIds()": "346fed10",
      "calcResolvedIds()": "2071be7f",
      "discardComplaint(uint256,string)": "b09cc427",
      "fileComplaint(string,string)": "6d1727e9",
      "nextId()": "61b8ce8c",
      "officer()": "bc685ce0",
      "owner()": "8da5cb5b",
      "pendingApprovals(uint256)": "686b656e",
      "pendingResolutions(uint256)": "fecc1021",
      "resolveComplaint(uint256,string)": "26019e7f",
      "resolvedCases(uint256)": "4de1c8c3",
      "setOfficerAddress(address)": "3c5f15e7"
    }
  },
  "storageLayout": {
    "storage": [
      {
        "astId": 3,
        "contract": "Complaint.sol:Complaint",
        "label": "officer",
        "offset": 0,
        "slot": "0",
        "type": "t_address"
      },
      {
        "astId": 5,
        "contract": "Complaint.sol:Complaint",
        "label": "owner",
        "offset": 0,
        "slot": "1",
        "type": "t_address"
      },
      {
        "astId": 7,
        "contract": "Complaint.sol:Complaint",
        "label": "nextId",
        "offset": 0,
        "slot": "2",
        "type": "t_uint256"
      },
      {
        "astId": 10,
        "contract": "Complaint.sol:Complaint",
        "label": "pendingApprovals",
        "offset": 0,
        "slot": "3",
        "type": "t_array(t_uint256)dyn_storage"
      },
      {
        "astId": 13,
        "contract": "Complaint.sol:Complaint",
        "label": "pendingResolutions",
        "offset": 0,
        "slot": "4",
        "type": "t_array(t_uint256)dyn_storage"
      },
      {
        "astId": 16,
        "contract": "Complaint.sol:Complaint",
        "label": "resolvedCases",
        "offset": 0,
        "slot": "5",
        "type": "t_array(t_uint256)dyn_storage"
      },
      {
        "astId": 83,
        "contract": "Complaint.sol:Complaint",
        "label": "Complaints",
        "offset": 0,
        "slot": "6",
        "type": "t_mapping(t_uint256,t_struct(complaint)78_storage)"
      }
    ],
    "types": {
      "t_address": {
        "encoding": "inplace",
        "label": "address",
        "numberOfBytes": "20"
      },
      "t_array(t_uint256)dyn_storage": {
        "base": "t_uint256",
        "encoding": "dynamic_array",
        "label": "uint256[]",
        "numberOfBytes": "32"
      },
      "t_bool": {
        "encoding": "inplace",
        "label": "bool",
        "numberOfBytes": "1"
      },
      "t_mapping(t_uint256,t_struct(complaint)78_storage)": {
        "encoding": "mapping",
        "key": "t_uint256",
        "label": "mapping(uint256 => struct Complaint.complaint)",
        "numberOfBytes": "32",
        "value": "t_struct(complaint)78_storage"
      },
      "t_string_storage": {
        "encoding": "bytes",
        "label": "string",
        "numberOfBytes": "32"
      },
      "t_struct(complaint)78_storage": {
        "encoding": "inplace",
        "label": "struct Complaint.complaint",
        "members": [
          {
            "astId": 61,
            "contract": "Complaint.sol:Complaint",
            "label": "id",
            "offset": 0,
            "slot": "0",
            "type": "t_uint256"
          },
          {
            "astId": 63,
            "contract": "Complaint.sol:Complaint",
            "label": "complaintRegisteredBy",
            "offset": 0,
            "slot": "1",
            "type": "t_address"
          },
          {
            "astId": 65,
            "contract": "Complaint.sol:Complaint",
            "label": "title",
            "offset": 0,
            "slot": "2",
            "type": "t_string_storage"
          },
          {
            "astId": 67,
            "contract": "Complaint.sol:Complaint",
            "label": "description",
            "offset": 0,
            "slot": "3",
            "type": "t_string_storage"
          },
          {
            "astId": 69,
            "contract": "Complaint.sol:Complaint",
            "label": "approvalRemark",
            "offset": 0,
            "slot": "4",
            "type": "t_string_storage"
          },
          {
            "astId": 71,
            "contract": "Complaint.sol:Complaint",
            "label": "resolutionRemark",
            "offset": 0,
            "slot": "5",
            "type": "t_string_storage"
          },
          {
            "astId": 73,
            "contract": "Complaint.sol:Complaint",
            "label": "isApproved",
            "offset": 0,
            "slot": "6",
            "type": "t_bool"
          },
          {
            "astId": 75,
            "contract": "Complaint.sol:Complaint",
            "label": "isResolved",
            "offset": 1,
            "slot": "6",
            "type": "t_bool"
          },
          {
            "astId": 77,
            "contract": "Complaint.sol:Complaint",
            "label": "exists",
            "offset": 2,
            "slot": "6",
            "type": "t_bool"
          }
        ],
        "numberOfBytes": "224"
      },
      "t_uint256": {
        "encoding": "inplace",
        "label": "uint256",
        "numberOfBytes": "32"
      }
    }
  },
  "userdoc": {
    "kind": "user",
    "methods": {},
    "version": 1
  }
}